:100000000C94F9010C9421020C9421020C9421020D
:100010000C9421020C9421020C9421020C942102D4
:100020000C9421020C9421020C94341B0C94A31BFD
:100030000C9421020C9421020C9421020C942102B4
:100040000C9421020C9421020C9421020C942102A4
:100050000C9421020C9421020C9421020C94EA1AB3
:100060000C9421020C9421020C9421020C94210284
:100070000C9421020C9421020C9421020C94210274
:100080000C9421020C9421020C9421020C94210264
:100090000C9421020C9421020C9421020C94210254
:1000A0000C9421020C9421020C9421020000000007
:1000B0000000000000000000000000002A002B00EB
:1000C0002800000000000000000000000000000008
:1000D0000000000000000000000000000000000020
:1000E0000000000000000000000000002C001E02C4
:1000F00034022002210222022402340026022702B6
:1001000025022E0236002D003700380027001E0081
:100110001F002000210022002300240025002600CB
:100120003302330036022E00370238021F02040267
:10013000050206020702080209020A020B020C026B
:100140000D020E020F02100211021202130214021B
:10015000150216021702180219021A021B021C02CB
:100160001D022F003100300023022D023500040053
:10017000050006000700080009000A000B000C003B
:100180000D000E000F0010001100120013001400EB
:10019000150016001700180019001A001B001C009B
:1001A0001D002F0231023002350200000000000065
:1001B000000000000000000000000000000000003F
:1001C000000000000000000000000000000000002F
:1001D000000000000000000000000000000000001F
:1001E000000000000000000000000000000000000F
:1001F00000000000000000000000000000000000FF
:1002000000000000000000000000000000000000EE
:1002100000000000000000000000000000000000DE
:1002200000000000000000000000000000000000CE
:1002300000000000000000000000000000000000BE
:1002400000000000000000000000000000000000AE
:10025000000000000000000000000000000000009E
:10026000000000000000000000000000000000008E
:10027000000000000000000000000000000000007E
:10028000000000000000000000000000000000006E
:10029000000000000000000000000000000000005E
:1002A0000000000000000000000000000501090639
:1002B000A101050719E029E7150025017501950839
:1002C0008102050C95017508150026FF001900290B
:1002D000FF8100050819012908950875019102059B
:1002E0000795067508150026E700190029E7810023
:1002F000C0080B0002020200000904000001020213
:100300000000052400100105240101010424020657
:1003100005240600010705810310004009040100BF
:10032000020A0000000705020240000007058302E0
:100330004000000403090412010002EF02014041E1
:1003400023368000010102030141726475696E6FFA
:10035000204C4C430041726475696E6F204C656F90
:100360006E6172646F000000000023002600290007
:100370002C002F000000000200090F000003040100
:10038000000C000000000000000000000000000061
:1003900000000000000000250028002B002E003186
:1003A0000000000000240027002A002D0030000477
:1003B000040404040304050202020204030202020C
:1003C00002060606060606040402020204040408E5
:1003D000020110408040102040804080080204014B
:1003E0008040201002011080102040402000D31EC9
:1003F000712511241FBECFEFDAE0DEBFCDBF23E0B1
:10040000A6E5B2E001C01D92AC3FB207E1F712E0F1
:10041000A0E0B1E0ECE7F0E502C005900D92A63552
:10042000B107D9F711E0C8EFD1E004C02197FE0170
:100430000E941626C73FD107C9F70E948C200C9452
:1004400031280C9400008CBD9DBD089590E0FC0106
:10045000E253FC4F249181559C4FFC0184918823E9
:1004600099F090E0880F991FFC01EF55FC4FA59182
:10047000B491FC01ED56FC4F859194918FB7F8949F
:10048000EC91E22BEC938FBF0895FC0180919A02CE
:10049000882311F13FB7F89482E08093E90020911E
:1004A000F200822F90E01816190614F481E090E013
:1004B000882339F0289844E6409399024091F1004E
:1004C0004083222339F02091F200211103C02BE652
:1004D0002093E8003FBF08958FEF9FEF089581506C
:1004E0008F3008F047C0E82FF0E0E758FD4F0C943C
:1004F000162696029A0288028E029202BA02BA0266
:10050000BA029D02A302A702AB02B102BA02B5026F
:10051000809180008F778093800008958091800083
:100520008F7DF9CF80918000877FF5CF84B58F775D
:1005300084BD089584B58F7DFBCF809190008F7727
:10054000809390000895809190008F7DF9CF8091E5
:100550009000877FF5CF8091C0008F778093C00097
:1005600008958091C0008F7DF9CF8091C200877F70
:100570008093C20008951F93CF93DF93282F30E01C
:10058000F901EC58FC4F8491F901E253FC4FD491EE
:10059000F901E155FC4FC491CC23A9F0162F81112C
:1005A0000E946F02EC2FF0E0EE0FFF1FED56FC4FA4
:1005B000A591B4918FB7F894EC91111108C0D09522
:1005C000DE23DC938FBFDF91CF911F910895DE2B47
:1005D000F8CF3FB7F8948091950290919602A09140
:1005E0009702B091980226B5A89B05C02F3F19F03D
:1005F0000196A11DB11D3FBFBA2FA92F982F8827A3
:10060000BC01CD01620F711D811D911D42E0660F7D
:10061000771F881F991F4A95D1F708958F929F924F
:10062000AF92BF92CF92DF92EF92FF924B015C01AB
:100630000E94E9026B017C010E94E9026C197D09AC
:100640008E099F09683E734081059105A8F321E05A
:10065000821A9108A108B10888EEC80E83E0D81E5E
:10066000E11CF11C81149104A104B10429F7FF904D
:10067000EF90DF90CF90BF90AF909F908F900895B4
:100680002FB7F89460919102709192028091930239
:10069000909194022FBF08954091690250916A028F
:1006A000209167023091680242175307B4F4909189
:1006B000E8009570E1F39091E80092FD19C08093F5
:1006C000F1008091690290916A0201968F739927D7
:1006D000892B19F48EEF8093E80080916902909144
:1006E0006A02019690936A028093690281E00895FC
:1006F00080E00895DF92EF92FF920F931F93CF93C4
:10070000DF93D82E8A01EB017B01E40EF51ECE1596
:10071000DF0559F0D7FE12C0FE0184910E944C0300
:1007200021968111F4CF0FEF1FEFC801DF91CF9118
:100730001F910F91FF90EF90DF9008958881EECF89
:100740002FB7F89487708093E9009091E800892F83
:10075000807295FF04C09091F20080E4891B2FBF46
:1007600008957F928F929F92AF92BF92CF92DF9225
:10077000EF92FF920F931F93CF93DF93C82E8B01BD
:100780007A0180919A02811110C08FEF9FEFDF9163
:10079000CF911F910F91FF90EF90DF90CF90BF907E
:1007A000AF909F908F907F90089580916D0280FF11
:1007B00005C08091E00082608093E000CE2DDF2DA7
:1007C000D12C8AEFB82E8C2D8770982E8C2D8072AC
:1007D000882E8C2D8074782E9AE3A92E209719F4F8
:1007E000DD2009F452C08C2D0E94A00381110AC0A3
:1007F000BA94BB2051F261E070E080E090E00E948A
:100800000E03ECCF8C171D0611F00CF08C2F9FB748
:10081000F8949092E9002091E80025FD02C09FBF66
:10082000DDCF282F30E0C21BD30B882029F0815068
:10083000A0F01092F100FBCFF801C7FC0AC0815074
:1008400050F041914093F100FACF44914093F10070
:1008500031968150D0F7020F131FDD2021F0A092B6
:10086000E800D12CDCCF8091E80085FD07C0A09284
:10087000E800DD24D394209791F2F3CF209779F606
:10088000772069F2A092E800CACF5D9884E6809351
:100890006C02C7017CCF615030F02091F100FC0167
:1008A00020830196F8CF289884E6809399020895D2
:1008B000AF92BF92DF92EF92FF920F931F93CF936D
:1008C000DF935C018B01EB019BEFD92E2097C1F0E8
:1008D0007E01C134D1051CF080E4E82EF12C80911A
:1008E000E80082FFFCCFC8018C1B9D0B6E2D8A0D8A
:1008F0009B1D0E944B04D092E800CE19DF09E6CF81
:10090000C801DF91CF911F910F91FF90EF90DF9081
:10091000BF90AF900895AF92BF92CF92DF92EF92C7
:10092000FF920F931F93CF93DF936C017B018B0199
:10093000040F151FEB015E01AE18BF08C017D107E9
:1009400059F06991D601ED91FC910190F081E02D73
:10095000C6010995892B79F7C501DF91CF911F91C8
:100960000F91FF90EF90DF90CF90BF90AF900895E0
:1009700080915F0281110DC082E080935B0284E070
:1009800080935C0210925E0210925D0281E080937F
:100990005F028BE592E008950F931F93CF93DF934F
:1009A0001F92CDB7DEB782E0898342E450E061EF69
:1009B00072E080E80E947A030E94B804DC0112967B
:1009C0000D911C910115110589F0D801ED91FC9153
:1009D0000280F381E02DBE016F5F7F4FC801099552
:1009E00097FD04C0F80100851185ECCF89810F9037
:1009F000DF91CF911F910F910895CF93DF93EC0179
:100A000080910B01882331F083E00E94B103181616
:100A1000190634F081E090E09B838A8380E090E0C7
:100A2000DF91CF910895CF93DF931F92CDB7DEB7BB
:100A30006983DC01ED91FC910280F381E02D41E0BE
:100A400050E0BE016F5F7F4F09950F90DF91CF910E
:100A5000089583E08093E9008091F200882319F0E3
:100A60008AE38093E800089583E00E94A00390E069
:100A70000895CF93DF931F92CDB7DEB7FC01848535
:100A8000958597FD08C02FEF3FEF358724870F909E
:100A9000DF91CF910895CE0101960E944502019702
:100AA00019F4898190E0F3CF8FEF9FEFF0CF0F9390
:100AB0001F93CF93DF931F92CDB7DEB78C01FC015C
:100AC0008485958597FF0BC0CE0101960E94450253
:100AD000019771F4898190E0F80195878487F80186
:100AE000848595850F90DF91CF911F910F91089587
:100AF0008FEF9FEFF1CFFC018485958597FD0BC0AB
:100B00009FB7F89482E08093E9008091F2009FBF44
:100B100090E0019608959FB7F89482E08093E900F1
:100B20008091F2009FBF90E00895CF93DF93EC0196
:100B30008A819B81DC01ED91FC910480F581E02D9F
:100B40006A8509958A85813439F4EA81FB81EA58FE
:100B5000FF4F8081846080831A861B861C861D86D9
:100B60001E861F86188A80E0DF91CF91089581E06C
:100B7000693009F080E00895FC01828508950F93A3
:100B80001F93CF93DF93FC018B01EA018081918158
:100B9000892B31F19281992349F128813981232BC5
:100BA000F9F0D8012D913C91D9014C918381682FA6
:100BB000691B770B80819181860F971FDC014C9315
:100BC000828181508283888199810197998388836A
:100BD000D8018D919C91119701968D939C93DACFBA
:100BE00080E0DF91CF911F910F91089583818283DF
:100BF00081E0F7CF3F924F925F926F927F928F92F8
:100C00009F92AF92BF92CF92DF92EF92FF920F939B
:100C10001F93CF93DF9300D000D0CDB7DEB76C0128
:100C20007A8369835C834B8384E0482E360182E1BA
:100C3000680E711C93E0392E5601A7E0AA0EB11C74
:100C400012E0552453944601B0E18B0E911C29818A
:100C50003A812115310509F4CBC0F60180A182301B
:100C6000F1F0A8F5882309F457C0813091F7AE015F
:100C70004F5F5F4FBE016D5F7F4FC5010E94BF0593
:100C8000882309F4B5C0D6011596ED91FC9116970D
:100C9000808191968C939197818192968C93F601A5
:100CA0007682658230A2D60192968C91929784309A
:100CB00011F493961C92F60181A1825084832581C0
:100CC0003681308727838287818740A205C08330A1
:100CD00051F3843009F0BDCFD60192968C91929752
:100CE000843019F1853009F44CC0823009F073C0AA
:100CF000AE014F5F5F4FBE016D5F7F4FC5010E9428
:100D0000BF05882309F474C0F601858984A3F60120
:100D10009682858210A29BCF1483858196819087CD
:100D200087831287118750A2A2CFAE014F5F5F4F1A
:100D3000BE016D5F7F4FC5010E94BF05882309F486
:100D400057C0D60155968C915597833001F79896E8
:100D50008C9198978111DBCF93965C9293975296E2
:100D60008C91529796968C93969753968C91539715
:100D700097968C93979757968C91579795968C93B7
:100D8000C6CFAE014F5F5F4FBE016D5F7F4FC501A4
:100D90000E94BF05882361F1F60183A1882309F42D
:100DA000B6CF82819381009709F4B1CFDC01ED9138
:100DB000FC910190F081E02D7401D60195960C9183
:100DC000959797962C91979796964C91969794967F
:100DD0006C9109959CCFF60185858823F9F08130C7
:100DE00041F1D6011E968D919C91892B09F48FCFEC
:100DF0000F900F900F900F90DF91CF911F910F9157
:100E0000FF90EF90DF90CF90BF90AF909F908F902A
:100E10007F906F905F904F903F90089591968C9146
:100E200091978250990B1F969C938E931E971D96B7
:100E30005C9229813A818B819C81782F692FF60100
:100E4000468557854115510581F0019621153105DB
:100E500039F0415051095787468721503109EDCF6C
:100E60001A8219827B836C83BCCF3A8329839C834B
:100E70008B831586B6CFCF93DF93EC018C819D8158
:100E8000DC01ED91FC910480F581E02D6E810995E6
:100E900081E08E8F1E821F8E18A219A21AA21CA298
:100EA00080E0DF91CF910895FC01DC01A65ABF4F8D
:100EB0008C918823A1F08781681741F0828521E019
:100EC00030E0681729F090E080E0089530E020E0FD
:100ED000C901880F991F820F931FE80FF91F8085A2
:100EE00091850895FC018781811104C080859185D9
:100EF000892B59F08285811106C08385948521E074
:100F000030E0892B21F080E0089530E020E0C90135
:100F1000880F991F820F931FE80FF91F678351876E
:100F2000408781E008950895DF92EF92FF920F933A
:100F30001F93CF93DF93EC0185E0E62EF12CFE01A9
:100F4000869FE00DF11D1124908596FF24C0192F76
:100F5000177001E085E0D82E8FEF800F8F3008F0FA
:100F600001E0602F70E0062FD69EF001D79EF00DB5
:100F70001124EC0FFD1F80858695869586958770D8
:100F8000181701F16F5F7F4F603168F38D81811316
:100F900002C011501D8385E08E9DF0018F9DF00DE4
:100FA0001124EC0FFD1F108681E0818712862296A6
:100FB000D783C683DF91CF911F910F91FF90EF9060
:100FC000DF900895CE010E949407C6CFFC012081D6
:100FD0002EBD9B012150310941F051810DB407FE16
:100FE000FDCF4EB55EBD4193F5CF61507109860FBF
:100FF000971F0DB407FEFDCF2EB5FC012083089589
:10100000FC0121E0613499F49C01255B3F4F61E0D4
:10101000AC014E5F5F4F15866687178654874387FE
:1010200035962E173F07B9F7FC01158208953585CF
:10103000631729F02F5F35962031C9F70895622F85
:101040000C949407CF93DF93FC0167FD12C0283006
:1010500080F4442319F08581873059F0EF01A1E035
:10106000B0E08D85882349F111962596A031B10510
:10107000C1F780E018C085E08A9FE0018B9FD00D0A
:101080001124CE0FDF1F442389F081E488878581F6
:101090008F5F858325E02A9FC0012B9F900D11242F
:1010A000E80FF91F8085DF91CF91089581E088874F
:1010B000F1CF2770687B622B0FC06623E1F2677067
:1010C000660F660F660F4423A1F3606485818F5F0E
:1010D00085838770687F682B25E02A9FC0012B9F3E
:1010E000900D1124E80FF91F6087862FDCCFFC01DB
:1010F00021E0611102C0069608953585631739F025
:101100002F5F35962031C9F790E080E0089506966C
:1011100035E0239F800D911D112408950F931F9397
:10112000CF93DF932115310599F0E901042F162F94
:101130000E947708FC0186ED309729F01283D18355
:10114000C083038380E0DF91CF911F910F910895B9
:1011500088EDF9CFCF93DF93EC01FB012A818481E5
:1011600095812817190609F04BC081819081913A29
:1011700079F4813029F0833039F48F898093F1003C
:1011800081E0DF91CF9108958230D1F5888DF6CF3F
:101190009132B1F58B3019F482818F8BF1CF8A3087
:1011A00019F48381888FECCF893051F5668177817E
:1011B0008381833079F48C8D9D8D6817790701F5D3
:1011C0008A8D9B8D0E9458048C8D9D8D90689D8F7B
:1011D0008C8FD6CF823051F46130710589F461E093
:1011E00070E0CE0149960E945804CACF813041F484
:1011F0006830710529F468E070E0CE010E96F3CFF7
:1012000080E0BFCFCF93DF93CDB7DEB729970FB67E
:10121000F894DEBF0FBECDBFFC014281FB012481EB
:1012200035814217130659F52081213841F5238174
:101230002132D1F489E0EDE1F1E0DE011196019077
:101240000D928A95E1F749E050E0BE016F5F7F4F54
:1012500080E00E947A0329960FB6F894DEBF0FBE95
:10126000CDBFDF91CF910895223249F421E0FC01F6
:10127000278B45E450E06CEA72E080E8EACF90E02A
:1012800080E0E9CFCF93DF93CDB7DEB769970FB694
:10129000F894DEBF0FBECDBFFC01DB019C919F5FC8
:1012A0009C939E012D5F3F4F81E1D9011D928A954C
:1012B000E9F729E0298384E08A8391E09D8383E034
:1012C0008E839F8398872A8721E22B879C879D871F
:1012D0009F8722E2288B25E4298B27E02B8B25E0B2
:1012E0002C8B8E8B20E430E0388F2F8B998F82816E
:1012F0008B83838180688D8B49E150E0BE016F5FF5
:101300007F4F80E00E947A0369960FB6F894DEBFA3
:101310000FBECDBFDF91CF910895CF93DF93DC0156
:1013200090E2960F9830B0F414968C91149721E0C7
:1013300030E001C0220F9A95EAF7442341F0282BB0
:1013400014962C9381E090E0DF91CF910895209541
:101350002823F6CFFD0136964423D1F0CD010C961B
:10136000EF012991621771F3C817D907D1F790E0FF
:1013700080E02191211105C0A80FB91F16966C932A
:10138000E1CF019686309105A1F790E080E0DCCFB7
:1013900090E080E02191621305C0A80FB91F169656
:1013A0001C92D0CF019686309105A1F7EECFCF9257
:1013B000DF92FF920F931F93CF93DF938C01F42E54
:1013C000E62FF0E0EE0FFF1FE455FF4FC590D490DD
:1013D000D801ED91FC910484F585E02D6C2DC801B8
:1013E0000995EC01892B11F4F11070C0D0FE0CC0EE
:1013F000D801ED91FC910484F585E02D4F2D60EE30
:10140000C8010995C82BD92BD1FE0CC0D801ED918C
:10141000FC910484F585E02D4F2D61EEC8010995FE
:10142000C82BD92BD2FE0CC0D801ED91FC910484BD
:10143000F585E02D4F2D62EEC8010995C82BD92BFB
:10144000D3FE0CC0D801ED91FC910484F585E02D0C
:101450004F2D63EEC8010995C82BD92BD4FE0CC0C3
:10146000D801ED91FC910484F585E02D4F2D64EEBB
:10147000C8010995C82BD92BD5FE0CC0D801ED9118
:10148000FC910484F585E02D4F2D65EEC80109958A
:10149000C82BD92BD6FE0CC0D801ED91FC91048449
:1014A000F585E02D4F2D66EEC8010995C82BD92B87
:1014B000D7FE0CC0D801ED91FC910484F585E02D98
:1014C0004F2D67EEC8010995C82BD92BCE01DF91AE
:1014D000CF911F910F91FF90DF90CF900895FF92D1
:1014E0000F931F93CF93DF93EC01F62E41E00E9400
:1014F000D7098C01892BA9F0E881F9810284F38551
:10150000E02DCE01099540E06F2DCE010E94D70954
:10151000892B39F0E881F9810284F385E02DCE0131
:101520000995C801DF91CF911F910F91FF90089508
:10153000FC0182818F5BFB01808381E00895089527
:1015400090E080E008952E9808952E9A0895EF92E5
:10155000FF920F93FC01368D323018F0348D361324
:1015600002C00E94021E0F91FF90EF900895EF922B
:10157000FF920F9302970E94A70A0F91FF90EF909E
:1015800008950895EF92FF920F931F93422F202FFB
:101590008701DC01ED91FC9100A0F1A1E02D0995FE
:1015A0001F910F91FF90EF90089581E00895FC0145
:1015B00084A10895FC018681089580E0089581E06A
:1015C000089580E0089580E00895089580E00895EA
:1015D00008950F931F93CF93DF93D82FC62F8A01BF
:1015E00080E591E00E9423020E94A30AD260DEBD42
:1015F000F8018C2F882339F00DB407FEFDCF9191AF
:101600009EBD8150F7CFC00FD12FD11D0DB407FE65
:10161000FDCF0E94A50ACE01DF91CF911F910F91BE
:1016200008950F931F93CF93DF9300D0CDB7DEB70C
:10163000182F062F80E591E00E9423020E94A30A42
:10164000126019830A8362E070E0CE0101960E9465
:10165000E6070E94A50A0F900F90DF91CF911F918E
:101660000F9108959F92AF92BF92CF92DF92EF9227
:10167000FF920F931F93CF93DF936C01C42FD22F50
:1016800099249394E62EF12CEE0CFF1CE80EF91E23
:1016900086E5E80EF11CA42EB12CABE2AA0EB11C1B
:1016A000AA0CBB1CAC0CBD1CF70180819181DC0134
:1016B000ED91FC910280F381E02D202F4D2F6C2FB6
:1016C0000995182F803EC9F5C1112BC061E088EE45
:1016D0000E94110B66E670E080E090E00E940E032D
:1016E000F70180819181DC01ED91FC910190F08105
:1016F000E02D202F4D2F6C2F0995182F8D30D1F50F
:101700008FEF890D8330F8F0C11137C061E088EEAA
:101710000E94110B66E670E080E090E00E940E03EC
:101720001CC0F50180819181DC01ED91FC91028466
:10173000F385E02D6D2F0995D3CF8D3061F48FEFB8
:10174000890D833050F464E670E080E090E00E9400
:101750000E039394A9CF882319F2812FDF91CF91A3
:101760001F910F91FF90EF90DF90CF90BF90AF90BF
:101770009F900895882389F3C7CF8C2F90E08B9694
:10178000880F991F8C0D9D1DFC0180819181DC01CA
:10179000ED91FC910284F385E02D6D2F0995DDCF4D
:1017A00069E188E80E94110B68E572E080E090E052
:1017B0000E940E0368E188E80C94110B8EBD0000B6
:1017C0000DB407FEFDCF8EB50895CF93C82F80E5E9
:1017D00091E00E9423020E94A30A8C2F0E94DE0B3C
:1017E00080E00E94DE0BC82F0E94A50A8C2FCF91AB
:1017F00008958F929F92AF92BF92CF92DF92EF9215
:10180000FF920F931F93CF93DF93882E962E5A014A
:101810000E9440036B017C0128E8C20E23E1D21E26
:10182000E11CF11C10E000E0D0E0C0E098280E942C
:1018300040036C197D098E099F0997FF1EC0692D11
:1018400080EF0E94110B0E9440036C197D098E09E4
:101850009F0997FF09C088EC0E94E50B87FFF3CF33
:1018600060E888EC0E94110B88EF0E94E50BC82FFE
:10187000CF70C43081F0CE30B9F08C2FDF91CF9192
:101880001F910F91FF90EF90DF90CF90BF90AF909E
:101890009F908F9008950F5F1F4FA114B10439F2EC
:1018A0000A151B0521F6E9CFDF5FD33009F0BFCF62
:1018B000E4CFAF92BF92CF92DF92EF92FF920F935D
:1018C0001F93CF93DF93EC01B62EA42E69010E94E3
:1018D00077087C0186EDE114F10409F447C0D701D3
:1018E000ED91FC91119787ED309709F43FC0139665
:1018F0009C9180E0981731F02081A21629F0339650
:101900008F5FF8CFF0E0E0E0D601ED93FC938BED34
:10191000309761F1228126952695203108F02FE03D
:1019200081E090E0A0E0B0E004C0880F991FAA1FFA
:10193000BB1F2A95D2F70197F801918380836B2D05
:1019400080EE0E94110B88ED0E94E50BD7011496E2
:101950009C91682F697F992329F0CA58DF4F6881CD
:101960006260682B88ED0E94110B80E0DF91CF91BF
:101970001F910F91FF90EF90DF90CF90BF90AF90AD
:10198000089588EF0E94E50B807C8034B1F018F454
:10199000882301F10895803819F0803CC9F008953A
:1019A00088ED0E94E50B81FD0DC069EC88ED0E9479
:1019B000110B82E080939B02089588ED0E94E50B55
:1019C00081FDF3CF6BEC88ED0E94110B83E0F2CF29
:1019D00081E0F0CF61ED88ED0E94110B10929B0227
:1019E0000895FC019C01285F3F4F90E080E0448116
:1019F0004111019614823196E217F307C1F7089559
:101A0000FC0180819181009711F00C94B826089513
:101A1000FC0101900020E9F73197AF01481B590BF9
:101A2000BC018CE992E00C94FD048F929F92AF92DE
:101A3000BF920F931F93CF93DF93CDB7DEB7A197DC
:101A40000FB6F894DEBF0FBECDBF19A2423008F426
:101A50004AE08E010F5D1F4F842E912CB12CA12CDA
:101A6000A50194010E94F425E62FB901CA01EA30CC
:101A7000F4F4E05DD801EE938D01232B242B252B6C
:101A800079F790E080E0109719F0CD010E94080DE1
:101A9000A1960FB6F894DEBF0FBECDBFDF91CF91F8
:101AA0001F910F91BF90AF909F908F900895E95C28
:101AB000E1CFCF93DF930E94080DEC018AED91E016
:101AC0000E94080D8C0F9D1FDF91CF9108952F92DA
:101AD0003F924F925F926F927F928F929F92AF92BE
:101AE000BF92CF92DF92EF92FF920F931F93CF930B
:101AF000DF93CDB7DEB72A970FB6F894DEBF0FBEDF
:101B0000CDBFB22E0E94E9022B013C0180917402EC
:101B1000882351F183EE91E00E94080D6B2D70E057
:101B200090E080E04AE00E94150D6AE38CE992E0C3
:101B30000E94130578016801CB0CD11CEC14FD0444
:101B400079F060E28CE992E00E941305D7016D9173
:101B50007D0170E090E080E040E10E94150DEECF45
:101B60008AED91E00E94080DB8E0BB12D8C0D80100
:101B70001296FE0131961F019801285F3F4F812C7C
:101B8000912C540141E050E060E070E08D919DEABD
:101B9000980F913108F0DCC08355990B6A017B01E5
:101BA00004C0CC0CDD1CEE1CFF1C8A95D2F78C28DF
:101BB0009D28AE28BF2810823196A217B30731F7AF
:101BC0008091560290915702A0915802B09159020B
:101BD000A5019401282739274A275B272F833887B7
:101BE00049875A87C12CD12C76018F819885A98588
:101BF000BA850C2C04C0B695A795979587950A943D
:101C0000D2F780FF1DC0D501C4010C2C04C0B695CD
:101C1000A795979587950A94D2F780FD9BC08DED87
:101C200091E00E94080D40E1C701B6016D5A7F4F57
:101C30008F4F9F4F0E94150D8AED91E00E94080D75
:101C40003FEFC31AD30AE30AF30A41E1C416D104F1
:101C5000E104F10451F68092560290925702A0924C
:101C60005802B092590280919A02882399F0D801C3
:101C70008C918093FA02ECEFF2E0C1010696D1015B
:101C80002D911D012193A817B907C9F78CEE92E099
:101C90000E94C61E0E94E902DC01CB01841995094D
:101CA000A609B70900917D0210917E0220917F0262
:101CB000309180020F5F1F4F2F4F3F4F00937D02E7
:101CC00010937E0220937F0230938002009179026C
:101CD00010917A0220917B0230917C02080F191F2B
:101CE0002A1F3B1F0093790210937A0220937B02F4
:101CF00030937C0200917502109176022091770258
:101D000030917802081719072A073B0740F480939F
:101D1000750290937602A0937702B09378022A9688
:101D20000FB6F894DEBF0FBECDBFDF91CF911F91EC
:101D30000F91FF90EF90DF90CF90BF90AF909F906A
:101D40008F907F906F905F904F903F902F9008956D
:101D5000808332CF80EE91E064CFFC0144815581D5
:101D600080910F03909110038417950780F0809164
:101D70000B0390910C03009751F060817181611504
:101D8000710529F00E94232821E0892B09F020E029
:101D9000822F08952F923F924F925F926F927F927F
:101DA0008F929F92AF92BF92CF92DF92EF92FF926B
:101DB0000F931F93CF93DF937B013A016901F901E0
:101DC000A080B180FB013180F90111821082FB01FA
:101DD000828160E181FD60E288EE0E94110B2A2C75
:101DE000A301F701608180E00E94F90B582EF6E014
:101DF0008F1310C088EF0E94E50BF70192819D7F41
:101E000084FF9260928360E191FD60E288EE0E941F
:101E1000110BE6CF811150C088EC0E94E50B82FFC8
:101E20005FC080E30E94E50B482E8A151B0411F069
:101E300008F0422CF60180819181E501C81BD90B85
:101E4000D7FF02C0D0E0C0E0842C912C8C169D06F8
:101E50000CF4E40180E591E00E9423020E94A30AB1
:101E600088E00E94DE0BAE0170E060E0C8010E94D5
:101E70000C28209721F0BE01C8010E94E6070C0F34
:101E80001D1F0E94A50A64E088EC0E94110BF60158
:101E900080819181880E991E91828082431420F066
:101EA0008A149B0408F49CCF88EF0E94E50BF7018D
:101EB000928184FB91F99283852DDF91CF911F91BF
:101EC0000F91FF90EF90DF90CF90BF90AF909F90D9
:101ED0008F907F906F905F904F903F902F900895DC
:101EE00080EF582EE9CFAF92BF92CF92DF92EF9260
:101EF000FF920F931F93CF93DF9300D000D0CDB705
:101F0000DEB77C01690158011C821B821A8219828A
:101F10008E010F5F1F4F9E012D5F3F4F0E94590C96
:101F2000811109C049815A816B817C8185019601AB
:101F3000C7010E94CA0E0F900F900F900F90DF9173
:101F4000CF911F910F91FF90EF90DF90CF90BF90B6
:101F5000AF9008954F925F926F927F928F929F926F
:101F6000AF92BF92CF92DF92EF92FF920F931F93A7
:101F7000CF93DF93CDB7DEB7C254D1090FB6F89433
:101F8000DEBF0FBECDBFDC0194962C9121111AC08B
:101F9000612C862DCE5BDF4F0FB6F894DEBF0FBEEF
:101FA000CDBFDF91CF911F910F91FF90EF90DF9008
:101FB000CF90BF90AF909F908F907F906F905F90E9
:101FC0004F9008957C010E944003F701878C90A0F8
:101FD000A1A0B2A0681979098A099B0997FDD8CFF9
:101FE0000E944003D70193962C91620F711D811DB1
:101FF000911DF701678F70A381A392A3712C6E01CD
:10200000F1E4CF0ED11C30E4832E912C57018AE5E8
:10201000A80EB11CD7015D968C91781608F0B8CF48
:10202000E72DF0E07296EE0FFF1FEE0FFF1FEE0D93
:10203000FF1D8081E82FF0E0CF01880F991FDC01A0
:10204000AE0FBF1FAE0DBF1D96962C9130E0D6018E
:102050002D933C93DE0111962D011D92AC15BD050B
:10206000E1F7E80FF91FEE0DFF1D8201960145A172
:10207000F7016681848195810E94730F682E81111A
:1020800088CFD6018D919C9111978134910510F0E4
:102090008D929C92D701ED91FC9100A0F1A1E02DD1
:1020A0008201D6012C91D5014C91B701C701099548
:1020B000D701ED91FC910288F389E02DD5018C9137
:1020C00081116980662DC7010995009769F0DC01CF
:1020D000ED91FC910190F081E02D8201D6012C91CF
:1020E000D5014C91B7010995739494CF3F924F92CB
:1020F0005F926F927F928F929F92AF92BF92CF9298
:10210000DF92EF92FF920F931F93CF93DF93CDB7A0
:10211000DEB7C254D1090FB6F894DEBF0FBECDBFF3
:10212000DC0194962C91222309F4A1C06C010E9439
:102130004003F601878C90A0A1A0B2A0681979098C
:102140008A099B0997FD93C00E944003D60193968C
:102150002C91620F711D811D911DF601678F70A377
:1021600081A392A3312C5E01F1E4AF0EB11C4601B4
:102170008AE5880E911CD6015D968C91381608F080
:1021800076C0E32DF0E07296EE0FFF1FEE0FFF1FFB
:10219000EC0DFD1D6080662009F467C0712C730191
:1021A000EE0CFF1CF701E60DF71DEC0DFD1D86A1E1
:1021B00090E0F50191838083FE0131962F01119209
:1021C000EA15FB05E1F7F701E60DF71DEC0DFD1D26
:1021D0008201950145A1D60116966C911697149629
:1021E0008D919C910E94730F182F81113EC0F501B3
:1021F000808191810097C9F18134910520F080E4BC
:1022000090E091838083E60CF71CD601AE0DBF1DD4
:10221000F60180819181FC01608C718C7201F50165
:102220000081F401208195964C91B601C601F3011D
:102230000995D601ED91FC910288F389E02DD40136
:102240008C9181111981612FC6010995009769F060
:10225000DC01ED91FC910190F081E02D8201D5012E
:102260002C91D4014C91B6010995339484CF80E030
:10227000CE5BDF4F0FB6F894DEBF0FBECDBFDF9150
:10228000CF911F910F91FF90EF90DF90CF90BF9073
:10229000AF909F908F907F906F905F904F903F9006
:1022A00008952F923F924F925F926F927F928F92FA
:1022B0009F92AF92BF92CF92DF92EF92FF920F93D5
:1022C0001F93CF93DF93CDB7DEB766970FB6F89421
:1022D000DEBF0FBECDBF3C01442E322E202EEA8A37
:1022E000CE8AEBA4FCA4CDA4DEA41E861D86188A8B
:1022F0001F868E01015F1F4F9E01235F3F4F0E948B
:10230000590C582E81113BC139822A822A892B838C
:102310003E893C83BE82AD8298868F82AE014F5F3C
:102320005F4F68E080E20E94E90A4F855889642D7A
:1023300080E10E94F90B811140C1C114D10409F45C
:1023400053C00D851E85D80112968C91129737FEC9
:1023500051C0826012968C93540122242394A114BC
:10236000B10409F42FC1FC86EB864F8558896D8531
:102370007E8586019E01255F3F4FC3010E94CA0EE4
:10238000582EB6E08B130EC088EF0E94E50BED854A
:10239000FE8585FB882780F98225928180FB91F953
:1023A0009283DDCF8111EBC0EFA5F8A93097A1F0A2
:1023B0006B857C850190F081E02D0190F081E02D0E
:1023C000C4018A199B099A8789879E01275F3F4F1D
:1023D000A6018FA598A909958B859C85A81AB90A8D
:1023E0008E159F0508F0BBCF4F85588937FEE1C099
:1023F00080EAE0C0816012968C93129711968C90BF
:102400008FEF880D803408F0DAC02F8438880E945E
:1024100040039B01AC0128573C4E4F4F5F4F2A8B26
:102420003B8B4C8B5D8BD80112968C9160E880FFC2
:1024300060E488EE0E94110B512C912CE114F10400
:1024400009F48CC03401E814F90408F437016E8AE9
:10245000A601662D80E10E94E90A662D88E30E94AC
:10246000110BF8016081606280EF0E94110B88EC13
:102470000E94E50B87FFFBCF60E888EC0E94110B00
:1024800088EF0E94E50B8F70582E198AB12CA12C71
:10249000552021F10E9440032A893B894C895D899E
:1024A000621B730B840B950B97FF18C036E0531615
:1024B00009F440C04EE05416B1F054E0551209C082
:1024C0008FEFA81AB80A2114310491F02A143B04A2
:1024D00079F460E088E30E94110B42C0E618F70827
:1024E000C60CD71CABCF99899F5F998B933089F32A
:1024F00060E088E30E94110BD6016C9180E10E949C
:10250000110B6E8988E30E94110BF80160816062F3
:1025100080EF0E94110B88EC0E94E50B87FFFBCF38
:1025200060E888EC0E94110B88EF0E94E50B8F7029
:10253000582EAECF88EF0E94E50B85FB882780F9E7
:10254000A1E08A27F801928180FB90F9928360E8EC
:1025500090FF60E488EE0E94110BCACF5110B9CFF2
:1025600088EF0E94E50BD80112969C91129785FB8B
:1025700090F912969C934F8558895520D1F0852D5E
:1025800066960FB6F894DEBF0FBECDBFDF91CF9138
:102590001F910F91FF90EF90DF90CF90BF90AF9081
:1025A0009F908F907F906F905F904F903F902F9073
:1025B000089580E8642D0E94F90B582EE0CF8AED33
:1025C000582EDDCF4F855889552009F411CFD7CF2C
:1025D0008F929F92AF92BF92CF92EF920F93CF9331
:1025E0001F921F921F921F921F921F92912C812C5B
:1025F000B12CA12CC12CE62E05E020E040E060E0EB
:102600000E945111C82F6CE271E080E090E00E94BE
:102610000E030F900F900F900F900F900F908C2F34
:10262000CF910F91EF90CF90BF90AF909F908F90F0
:1026300008958F929F92AF92BF92CF92EF920F9395
:102640001F921F923F932F935F934F934A01B12C98
:10265000A12CCC24C394E12C06E020E840E00E94A9
:1026600051110F900F900F900F900F900F900F91AE
:10267000EF90CF90BF90AF909F908F9008952F9242
:102680003F924F925F926F927F928F929F92AF9202
:10269000BF92CF92DF92EF92FF920F931F93CF934F
:1026A000DF93CDB7DEB768970FB6F894DEBF0FBEE5
:1026B000CDBF1B8A38E03C8B3CE33D8B8A3F3FEF2C
:1026C0009307D9F416ED812F68960FB6F894DEBF04
:1026D0000FBECDBFDF91CF911F910F91FF90EF9073
:1026E000DF90CF90BF90AF909F908F907F906F9032
:1026F0005F904F903F902F900895222E642E362E9B
:102700007C01DC0116960D911C911797CE01439622
:1027100017969C938E9316971A962C939E012F5F73
:102720003F4F42E150E060E0C7010E941913782E4C
:10273000F70117830683182F8111C5CF49845A8466
:102740008B849C84FD81FF8B3E81388F670186E5F9
:10275000C80ED11C56011E8AD5018D919D915D0137
:102760000097D1F5BE89BF5FBE8BB031A9F7F601E6
:10277000819191916F01009709F06EC07394F0E11F
:102780007F12F5CFF7018681978117ED892B09F428
:102790009ACF2286262D40E0632DC7010E94220891
:1027A000082F14ED882309F48ECF682FC7010E94EB
:1027B0007708009709F486CFDC0114962C92602FDD
:1027C000C7010E94E812182F882309F47CCF602FDC
:1027D000C7010E94000877CFDC01ED91FC910084D5
:1027E000F185E02D09958111BDCFF501929182917E
:1027F0008F01DC01ED91FC910088F189E02D688D5D
:102800000995882309F4AECFF80180819181DC011C
:10281000ED91FC910484F585E02DA401B2010995A8
:10282000882361F0022D262D432D6E89C7010E9459
:10283000320B182F813D09F495CF45CFF8018081E7
:102840009181DC01ED91FC910684F785E02D6F8983
:1028500009958111E7CF86CFDC01ED91FC910084D1
:10286000F185E02D0995811189CFF6019291829130
:102870008F01DC01ED91FC910088F189E02D688DDC
:10288000099581110DC0022D262D432D672DC701FD
:102890000E94320B182F877F813D09F014CF6ECF35
:1028A000F80180819181DC01ED91FC910484F58532
:1028B000E02DA401B2010995811160CFF80180815A
:1028C0009181DC01ED91FC910684F785E02D6F8903
:1028D00009958823C1F252CF8F929F92AF92BF92F7
:1028E000CF92EF920F931F931F921F921F930F93FC
:1028F0005F934F934A01B12CA12C32E0C32EE22EFC
:1029000006E020E840E00E9451110F900F900F90D8
:102910000F900F900F901F910F91EF90CF90BF905D
:10292000AF909F908F9008958F929F92AF92BF9299
:10293000CF92EF920F93A42EB12C1F921F921F9251
:102940001F921F921F92912C812CC12CE62E01E028
:1029500023E240E0FC016285828193810E94511153
:102960000F900F900F900F900F900F900F91EF908E
:10297000CF90BF90AF909F908F9008958F929F922D
:10298000AF92BF92CF92EF920F93A62EB12C1F92CF
:102990001F925F934F931F9224E02F9324E0822E87
:1029A000912CC12CE12C00E023EA40E0FC0162857F
:1029B000828193810E9451110F900F900F900F9080
:1029C0000F900F900F91EF90CF90BF90AF909F908E
:1029D0008F9008958F929F92AF92BF92CF92EF9275
:1029E0000F93A42EB12C1F921F921F921F921F9221
:1029F0001F92912C812CC12CE62E03E023E240E0B3
:102A0000FC016285828193810E9451110F900F9089
:102A10000F900F900F900F900F91EF90CF90BF906D
:102A2000AF909F908F900895CF92DF92EF92FF9298
:102A30001F93CF93DF93EC01162F7A01FA01808167
:102A40009181A281B3818130F3E09F07F1E0AF076C
:102A5000B105C9F170F48115E1E09E07AE07B1053B
:102A600009F450C081309140A140B10561F180E08E
:102A700041C0833021E0920720E1A207B10529F08F
:102A800083309340A041B10591F7412F64E1CE011D
:102A90000E949414412F60E1CE010E94941464E1DD
:102AA00070E080E090E00E940E036A85F7012181CA
:102AB000269521706770412F8A819B810E943F1368
:102AC00010925A02D4CF80915A028111D0CF412F57
:102AD00061E1CE010E949414412F60E1CE010E9479
:102AE0009414412F64E0CE010E94EA1481E08093A7
:102AF0005A0281EBDF91CF911F91FF90EF90DF9011
:102B0000CF900895462F61E1CE010E949414412F89
:102B100060E1CE010E94941410925A028A85877057
:102B20001770880F880F880F182B09F4A0CFEA8040
:102B3000FB806701F6E5CF0ED11CD0E0C0E0D601E6
:102B40008D919D916D010097C1F0DC01ED91FC919B
:102B50000084F185E02D099518130FC0AB96CC0FBA
:102B6000DD1FCE0DDF1D88819981DC01ED91FC9187
:102B70000480F581E02D09957ACF2196C031D105E9
:102B8000F1F675CFCF92DF92EF92FF920F931F93E2
:102B9000CF93DF93CDB7DEB72E970FB6F894DEBF95
:102BA0000FBECDBFFC012089211111C010E0812F83
:102BB0002E960FB6F894DEBF0FBECDBFDF91CF913A
:102BC0001F910F91FF90EF90DF90CF9008957C01BF
:102BD0000E944003F7010485158526853785601B13
:102BE000710B820B930B97FDE1CF81E090E09E8704
:102BF0008D878E010F5F1F4F9E01235F3F4F41E086
:102C00006285828193810E94730F182F811121C0E8
:102C100082E0D82E01E089818D2139F119861A864A
:102C20001B861C86AE01475F5F4F602FC7010E9465
:102C3000BE14C82E811119C0AE01475F5F4F602FCF
:102C4000C7010E941415813B19F0882371F0C82E2A
:102C50001C2D0E9440036C597F4F8F4F9F4FF701EF
:102C60006487758786879787A2CFDD0C0F5F083052
:102C700091F601E0F7018385801758F319861A86CB
:102C80001B861C86AE01475F5F4F602FC7010E9405
:102C9000BE14D82E811117C089859A8587709170CE
:102CA0008130914081F48B859C8581609C878B87E6
:102CB000AE01475F5F4F602FC7010E941415813B33
:102CC00029F0811102C00F5FD5CFD82E1D2DC1CFA5
:102CD000CF92DF92FF920F931F93CF93DF9300D099
:102CE00000D0CDB7DEB78C01F62E19821A821B8276
:102CF0001C82462F61E10E9494144F2D60E1C801AF
:102D00000E9494144F2D64E0C8010E94EA1483E0ED
:102D1000C82ED12CAE014F5F5F4F6F2DC8010E94AE
:102D2000BE14811114C089819A81AB81BC819D7FC1
:102D300083309140A041B10551F064E670E080E03D
:102D400090E00E940E0381E0C81AD10819F74F2DB8
:102D500064E1C8010E9494144F2D60E1C8010E94F3
:102D6000941464E170E080E090E00E940E030F9004
:102D70000F900F900F90DF91CF911F910F91FF90C7
:102D8000DF90CF9008952F923F924F925F926F9273
:102D90007F928F929F92AF92BF92CF92DF92EF92EB
:102DA000FF920F931F93CF93DF93CDB7DEB7E897D2
:102DB0000FB6F894DEBF0FBECDBFDC011A963C9172
:102DC00031112BC1922E242E362E3C01FC01E280C3
:102DD000F380D701ED91FC910190F081E02D60E04E
:102DE000C70109958C01009709F41AC1FC01C08044
:102DF000D180C114D10409F416C15301F4E0AF0E1F
:102E0000B11CDC011196BC92AE9214969C92FE010C
:102E100031962F019F0148E050E060E0D301129607
:102E20008D919C910E941913982EF80114828111A2
:102E300000C18D8191ED992E893059F58980D70196
:102E4000ED91FC910280F381E02D222D41E0632D74
:102E5000C7010995F3018287882309F4E7C09885A3
:102E60009583682F828193810E94E812982ED80161
:102E7000CD92DC92882339F1D701ED91FC91048049
:102E8000F581E02DD3011A966C91C7010995F301E4
:102E90001286892DE8960FB6F894DEBF0FBECDBF1F
:102EA000DF91CF911F910F91FF90EF90DF90CF9026
:102EB000BF90AF909F908F907F906F905F904F905A
:102EC0003F902F900895811088C0950142E0F30152
:102ED0006285828193810E948E08982E8111D9CFBC
:102EE0001F921F925F924F921F9288E08F9358E03B
:102EF000852E912CB12CA12C69E2C62EE12C06E086
:102F000020EA40E0F3016285828193810E945111A1
:102F1000982E0F900F900F900F900F900F9081119F
:102F2000B8CF8B81D3011B968C931B97820120E035
:102F300048E050E01A966C911A9712968D919C91E8
:102F40000E946C14982E8111A4CF4B815C8120E0EB
:102F5000F3016285828193810E946C14982E811105
:102F600098CF498150E08E010F5D1F4F20E0D301C3
:102F70001A966C911A9712968D919C910E946C14DE
:102F8000982E811186CF1F921F921F921F921F921F
:102F90001F92912C812CC12CEE8009E020E040E0B2
:102FA000F3016285828193810E945111982E0F90C6
:102FB0000F900F900F900F900F9081116ACF11E03A
:102FC000D3011B968C911B978117D0F0412F68E09D
:102FD000C3010E94EA141F5FF3CF482D413208F06D
:102FE00040E250E09201D3011A966C911A97129622
:102FF0008D919C910E941913982E81114ACF65CF13
:103000001296ED91FC911397EA58FF4F80818460EE
:10301000808381E050968C933CCF49ED942E39CF3C
:1030200036ED932E36CF27ED922E33CF84ED982EAA
:1030300030CFD182C0822DCF2F923F924F925F929C
:103040006F927F928F929F92AF92BF92CF92DF92B8
:10305000EF92FF920F931F93CF93DF93CDB7DEB71D
:10306000C258D1090FB6F894DEBF0FBECDBFDC0148
:1030700016963C9119ED311114C0B22E942EA62E45
:103080003C01FC01C480D580D601ED91FC910190FA
:10309000F081E02D60E0C60109952C010097E1F474
:1030A00016ED812FCE57DF4F0FB6F894DEBF0FBE5F
:1030B000CDBFDF91CF911F910F91FF90EF90DF90E7
:1030C000CF90BF90AF909F908F907F906F905F90C8
:1030D0004F903F902F900895FC01008111810115C0
:1030E000110509F4A3C11301F5E22F0E311CDC0117
:1030F00011963C922E921496BC929E0126593F4FF7
:1031000048E050E060E0F301848195810E9419134A
:10311000F82E81118DC1AB96FFACAB97D2010D9308
:103120001C93D601ED91FC910280F381E02D292DB5
:1031300040E06A2DC6010995F301868314ED8823CA
:1031400009F4AFCFE2969FADE29796A3682F8481F2
:1031500095810E94E812182FD601ED91FC91D201C1
:1031600014961C92882359F00480F581E02DD30138
:1031700016966C91C6010995F301168292CF0190C3
:10318000F081E02DD30116966C91C6010995009748
:1031900009F486CFFC01B482F110A8C0E4968EAD8C
:1031A0009FADE497F301E35AFF4F91838083E69646
:1031B0008EAD9FADE697329791838083EC96FFADFD
:1031C000EC97C058DF4FF883C058D040910141E0E0
:1031D000D30116966C91169714968D919C910E942E
:1031E0008E08F82E811197C02E01B1E44B0E511CB0
:1031F000F3013296CF57DF4FF983E883C158D040AF
:10320000C2014096EE969FAF8EAFEE97C058DF4F4B
:10321000B881C058D040FB1609F489C080E391E022
:10322000F20191838083CF57DF4FA881B981C158C4
:10323000D040B383A2831482118612861586178626
:10324000168610A211A212A210A6EE968EAD9FAD08
:10325000EE97968385839087878394878387D301AE
:1032600014960D90BC91A02DC258DF4FB983A8834E
:10327000CE57D040F301D6808E010F5F1F4F2F2D08
:1032800049E050E06D2DCD010E946C1481114DC0BC
:103290008B809C805F924F921F930F93C401A1E497
:1032A0008A16910410F080E490E09F938F93B12CE4
:1032B000A12C32E0C32EEF2C06E020E840E06D2D7B
:1032C000C258DF4F88819981CE57D0400E9451115A
:1032D0000F900F900F900F900F900F90811125C0BD
:1032E000F301868D823018F5F39490CF4F2D433142
:1032F00008F042E150E09E0126593F4FD301169657
:103300006C91169714968D919C910E941913F82E2A
:10331000882309F443CFD301ED91FC910480F5811A
:10332000E02DC30109951F2DBCCEF82EF4CFD3019B
:103330005E964C915E9711ED423008F4B2CE910149
:1033400016966C91169714968D919C910E948E08FA
:103350001F921F921F921F921F921F92912C812CDD
:10336000B12CA12CC12CF301E48C09E020E040E059
:103370006681848195810E945111182F0F900F90C2
:103380000F900F900F900F9081114EC0D12CD30150
:103390005D968C915D97D816E0F58D2D90E0FC013F
:1033A0007296EE0FFF1FEE0FFF1FE60DF71D208137
:1033B000211102C0D394EBCFFC01EE0FFF1FEE0FE3
:1033C000FF1FE60DF71DEA5BFF4F80818770A82E77
:1033D000B12C1F921F921F921F921F921F92912C2D
:1033E000812CC12CE12C0AE021E240E0F30166814E
:1033F000848195810E945111F82E0F900F900F90AB
:103400000F900F900F908823A9F2F5E08F1791F29B
:1034100082CFED91FC910688F789E02DC3010995D3
:1034200081E0F30184A33DCEF82E75CF17ED39CEA0
:10343000F201118300836FCF0E94FE27FC0180817F
:103440009181009711F00C94752560E070E0CB013C
:1034500008950F931F93CF93DF93EC018881998197
:10346000009759F02A813B812617370730F081E019
:10347000DF91CF911F910F9108958B016F5F7F4F67
:103480000E944127009759F0998388831B830A8300
:103490002C813D81232B59F7FC011082E8CF80E07D
:1034A000E7CFEF92FF920F931F93CF93DF93EC013F
:1034B0007B018A01BA010E94291A28813981811170
:1034C00014C02115310519F0C9010E94B8261982CE
:1034D00018821D821C821B821A82CE01DF91CF913D
:1034E0001F910F91FF90EF9008951D830C83B701FA
:1034F000C9010E941C28F1CFFC01118210821382A5
:10350000128215821482FB0101900020E9F73197A5
:10351000AF01461B570B0C94511ACF92DF92EF92DA
:10352000FF920F931F93CF93DF93EC016B017A010E
:103530004617570720F48D2D6A01E62EF82E6CED04
:1035400071E0CE010E947C1A00910F0310911003CC
:10355000C016D10640F5E016F10608F48701E091A7
:103560000B03F0910C03E00FF11FF08010826091CB
:103570000B0370910C036C0D7D1D61157105E9F055
:10358000FB0101900020E9F73197AF01461B570B73
:10359000CE010E94511A80910B0390910C03080FE9
:1035A000191FF801F082CE01DF91CF911F910F9189
:1035B000FF90EF90DF90CF900895888199810097D8
:1035C00011F00E94B826198218821D821C821B826B
:1035D0001A82E1CF1F920F920FB60F9211242F93F0
:1035E0003F938F939F93AF93BF938091910290915C
:1035F0009202A0919302B09194023091900223E044
:10360000230F2D3758F50196A11DB11D209390026F
:103610008093910290939202A0939302B0939402AC
:103620008091950290919602A0919702B091980294
:103630000196A11DB11D8093950290939602A093CF
:103640009702B0939802BF91AF919F918F913F9154
:103650002F910F900FBE0F901F90189526E8230F03
:103660000296A11DB11DD2CF1F920F920FB60F92DD
:1036700011248F939F938091E1009091E100937FBB
:103680009093E10083FF0FC01092E90091E09093C6
:10369000EB001092EC0092E39093ED0010929A02EE
:1036A00098E09093F00082FF22C093E09093E900AD
:1036B0009091F200992319F09AE39093E800909189
:1036C0006C02992341F090916C02915090936C029E
:1036D000911101C05D9A90919902992341F09091C6
:1036E0009902915090939902911101C0289A84FFF8
:1036F00018C08091E2008E7E81608093E20080910C
:10370000E1008F7E8093E10080916D028E7E80616A
:1037100080936D029F918F910F900FBE0F901F901D
:10372000189580FFF7CF8091E2008E7E80618093B4
:10373000E2008091E1008E7E8093E10080916D0235
:103740008E7E8160E5CF1F920F920FB60F921124EB
:10375000CF92DF92EF92FF920F931F932F933F939D
:103760004F935F936F937F938F939F93AF93BF9389
:10377000EF93FF93CF93DF93CDB7DEB76C97DEBFA8
:10378000CDBF1092E9008091E80083FF25C068E07A
:10379000CE0145960E944B0482EF8093E8008D890C
:1037A00087FF39C09091E80090FFFCCF982F90766A
:1037B00009F034C19E894F89588D2F89F88C911159
:1037C00031C0803861F580916E028093F1001092D3
:1037D000F1008EEF8093E8006C960FB6F894DEBF90
:1037E0000FBECDBFDF91CF91FF91EF91BF91AF9110
:1037F0009F918F917F916F915F914F913F912F9109
:103800001F910F91FF90EF90DF90CF900F900FBE20
:103810000F901F9018959EEF9093E800C7CF1092DD
:10382000F100D5CF913059F48111D3CF41305105FA
:1038300081F680916E028D7F80936E02CACF9330A5
:1038400049F48111C6CF4130510519F680916E02BD
:103850008260F2CF953041F48091E80080FFFCCF88
:1038600020682093E300B5CF963009F0A9C00B8DF6
:103870001C8D22E01092E90010926A0210926902F7
:10388000F2122EC010926802109267020E94CC04BD
:103890001F8299E09983FA8291E09E8390EA98874B
:1038A0009AEF99872091690230916A02275F3F4F12
:1038B0003C832B838D831092E90010926A02109250
:1038C0006902109368020093670249E050E0BE016C
:1038D0006F5F7F4F80E00E947A030E94CC0479CF13
:1038E00010936802009367020E94B804DC011296EC
:1038F0000D911C910115110509F44BC1D801ED91F1
:10390000FC910480F581E02DBE016B5E7F4FC80104
:103910000995009709F038C1F80100851185EACFB3
:10392000F3E0FF120EC08F89882309F440C0823073
:1039300061F440E860E185E593E00E94CF1D8111CC
:1039400048CF81E28093EB0047CF813029F440E8F3
:103950006BE089E493E0F1CF833099F70E94B804DB
:10396000DC011296ED90FC908E010F5F1F4F6801F5
:10397000E114F10479F0D701ED91FC910680F78113
:10398000E02DB801C7010995080F111DF701E0846A
:10399000F184EECFD8011C92F60101900020E9F7E6
:1039A0003197BF016C197D0940E0C601C6CF63E3C2
:1039B00073E0FB01449150E080E80E947A0309CF54
:1039C000973009F4BECF983021F481E08093F10064
:1039D00000CF993009F0FDCE837009F0B2CFE1E15C
:1039E000F1E081E031E096E32191222371F08093B0
:1039F000E9003093EB00DF0111972C912093EC004C
:103A00009093ED008F5F873079F78EE78093EA001F
:103A10001092EA008F8980939A02DBCE8B8D9C8D69
:103A20001092E90010926A02109269029093680263
:103A300080936702898D81118CC08E899D89913A0E
:103A400049F4813209F07DCF47E050E064E071E055
:103A500080E0B3CF913209F074CF833269F48F895B
:103A6000988DB0E0A0E08093000190930101A093B5
:103A70000201B0930301ADCE803239F467E070E00B
:103A800084E091E00E945804A4CE823209F0A1CED5
:103A90008F8980930B01EEEFFFE7859194918B3F27
:103AA0009C4D51F1E0E0F8E0809104019091050116
:103AB000A0910601B0910701803B9440A105B1059A
:103AC000F1F480910B0180FD1AC0EE3F8AE0F80707
:103AD00089F587E797E791838083809160008093E1
:103AE0006B0288E19BE00FB6F894A8958093600084
:103AF0000FBE909360006DCEEEEFFAE0D5CF8081DF
:103B000091818737974709F064CEA895809160002E
:103B100088618093600080916B0280936000EE3F2B
:103B20002AE0F20789F08091FE0A9091FF0A9183C2
:103B300080834FCE808191818737980751F290938F
:103B4000FF0A8093FE0AC5CF1092FF0A1092FE0A68
:103B500040CE0E94B804DC0112960D911C91011513
:103B6000110509F4EECED801ED91FC910190F081A0
:103B7000E02DBE016B5E7F4FC8010995811129CEF2
:103B8000F80100851185EBCF181619060CF421CE2B
:103B9000D8CEF1E0FF12C4CE67E373E00ACFEF9214
:103BA000FF920F931F93CF93DF93F82E192FE62EDA
:103BB000042F81E0860F880F0E944C0383E00E944F
:103BC0004C03CF2DD12FEC0EFD2EF11CCE15DF05B1
:103BD000B9F007FF13C0FE0184910E944C03182F17
:103BE00080E00E944C03812321968111EFCFDF9169
:103BF000CF911F910F91FF90EF9008958881EDCFA5
:103C000081E0F5CF6F927F928F929F92AF92BF9299
:103C1000CF92DF92EF92FF920F931F93CF93DF9398
:103C2000EC01842F6C8F4D8D70E060E0A82EB12CDC
:103C3000822E912C602E712C641770F56530710501
:103C400059F1DB01AA0FBB1FAA0FBB1FFE01EA0F30
:103C5000FB1FEA5BFF4F9081392F37703A151B0429
:103C600009F087C0392F3695369536953770381557
:103C7000190409F07EC092959695969593709615C5
:103C8000170409F076C06E0196E4C90ED11CCA0E65
:103C9000DB1EC114D104F9F4453008F05BC0A4E088
:103CA0004A9FA00111246E01B6E4CB0ED11CC40EB4
:103CB000D51E2770220F220F220F982F9770292BC5
:103CC000902F9295990F990F907C292BF6012083C4
:103CD0009D8D9F5F9D8FD70113969C911397937035
:103CE00010E0933029F412969C9112E097FD11E0B8
:103CF000402F682FE881F981068CF78DE02DCE01E9
:103D00000995882339F1112329F18E8D8B3010F517
:103D1000282F30E0F901EE0FFF1FE20FF31FEC0F29
:103D2000FD1FD70112969C9112979F7095A3149630
:103D30009C91149796A394E097A3C10ED11CF60111
:103D4000818316968C919BA1981708F48BA38E8D76
:103D50008F5F8E8FDF91CF911F910F91FF90EF902A
:103D6000DF90CF90BF90AF909F908F907F906F909B
:103D700008956F5F7F4F60CFEF92FF920F9302978E
:103D80000E94021E0F91FF90EF900895BC01625FA8
:103D90007F4FFC01838148E050E080640C94B103C4
:103DA0000A970C94C61ECF93DF9310929F02109235
:103DB0009E0288EE93E0A0E0B0E08093A002909392
:103DC000A102A093A202B093A30286E391E0909394
:103DD0009D0280939C028FEF9FEF9093A9028093A6
:103DE000A80281E08093F0028093F10222E033E0A8
:103DF0003093F3022093F2021092F5021092F40233
:103E00001092F9021092F80228E431E03093ED02AA
:103E10002093EC0226E531E03093F7022093F6027E
:103E20008093030380930403109205031092070309
:103E300010920603109209031092080381EC8093FC
:103E400002030E94B804FC0181819091F002482F86
:103E5000490F5527551F483051059CF5A281B38164
:103E6000109709F52CEE32E03383228320812093D2
:103E7000EE028093EF028091F102820F8083209105
:103E8000F202A22FB091F3028A2F821B8917C8F485
:103E900081813D91C82FD0E0C05FDE4F38838F5FB6
:103EA0008183F2CFD90118962D913C911997211554
:103EB0003105C1F72CEE32E019963C932E931897FA
:103EC000D5CF84ED91E0909382038093810310928B
:103ED000890381E080938A0310928B0383E893E047
:103EE00090938803809387031092830388E08093E4
:103EF00084038CE38093850310928603E1E8F3E06A
:103F000091E023E833E01586968717863487238768
:103F1000359653E0EC3CF507B1F71092F70381E1D9
:103F200080930A032EEB31E03093710320937003EA
:103F300021E833E0309373032093720310928003DF
:103F40001092740388E0809375032CE3209376032A
:103F5000909377038093780384E0809379031092A1
:103F60007A0310927B0310927C0310927D031092CF
:103F70007E0310927F03A7EDB3E0FD0190E080E0A7
:103F800021913191232B09F0BCC0880F991FFC01AE
:103F9000E952FC4F80E793E09183808381E893E0CE
:103FA000909316038093150388E691E09093120393
:103FB000809311038CE891E0909314038093130392
:103FC0001092300310923103109232031092330397
:103FD000109234031092350310926B031092180361
:103FE00010921A031092190310921B0310921D03D2
:103FF00010921C0310921E031092200310921F03B4
:104000001092210310922303109222031092240392
:104010001092260310922503109227031092290371
:104020001092280310922A0310922C0310922B0353
:10403000E8E5F3E090E080E0EC01CC0FDD1FCC0F71
:10404000DD1FC95ADC4F2881287328831082118212
:10405000019634968530910579F7C1E1D3E090E07F
:1040600080E01DA2582F28E0811120E02EA3BC0182
:10407000660F771F9B01280F391F285C3C4FF90101
:1040800040814E7F4D7F40833FE0511131E0FB0185
:10409000E80FF91FE85CFC4F330F330F20812370CA
:1040A000232B2083019623968B309105D1F681E056
:1040B00080932F0310922E0310922D0390E080E046
:1040C0002D913D91232B19F5880F991FFC01E95281
:1040D000FC4F81E193E09183808382E991E09093AA
:1040E00012038093110388EB91E090931403809363
:1040F00013036CED71E08BE093E0DF91CF910C94B2
:104100007C1A01968031910509F03ACF47CF01968C
:1041100080319105A9F6E1CFCF93DF9300D000D095
:1041200000D01F92CDB7DEB7789484B5826084BD8D
:1041300084B5816084BD85B5826085BD85B58160AB
:1041400085BD80916E00816080936E001092810029
:1041500080918100826080938100809181008160E4
:1041600080938100809180008160809380008091A5
:104170009100826080939100809191008160809392
:104180009100809190008160809390008091C100A7
:1041900084608093C1008091C10082608093C100DF
:1041A0008091C10081608093C1008091C3008160D3
:1041B0008093C3008091C00082608093C000809192
:1041C000C20081608093C20080917A0084608093F5
:1041D0007A0080917A00826080937A0080917A00E0
:1041E000816080937A0080917A00806880937A0061
:1041F00010929A0210926E0210926D028091D70076
:1042000081608093D70080EA8093D80089B580616F
:1042100089BD89B5826089BD09B400FEFDCF61E02A
:1042200070E080E090E00E940E038091D8008F7CC7
:1042300080618093D8008091E000807F8093E000CF
:104240008091E1008E7E8093E1008DE08093E2001A
:10425000559A209A0E9426028FEF9FEF9093A90211
:104260008093A80286EF92E00E94F10C86EF92E024
:104270000E94D01E269A0E94A50A1FB7F89480912A
:104280006F02811124C0E0ECF3E08491EFEDF3E0E4
:104290009491E82FF0E0EE0FFF1FEF55FC4FA59132
:1042A000B491EC91E92321F461E081E10E94BB0229
:1042B00081E10E9426028CB580618CBD8CB5806442
:1042C0008CBD8FE00E94260280E10E942602809130
:1042D0006F028F5F80936F021FBF209A289A2598E4
:1042E00068E188E80E94110B60E288E70E94110BE8
:1042F00060E088E70E94110B10E000E088E60E9471
:10430000E50B0F5F1F4F80FF5AC061EC88ED0E94E4
:10431000110B60E680ED0E94110B64E088EE0E94B4
:10432000110B88EE0E94E50B82FFFBCF0E94C10CAF
:1043300060E288EC0E94110B61E080E80E94110BA2
:104340004CE051E060E081E193E00E9472070E943E
:10435000D00B0E94400360938C0270938D02809377
:104360008E0290938F02332433943E0187E0680ECF
:10437000711C50E0452E50E0552E30E9232E83B1BC
:10438000182F107285FD0CC088EC0E94E50B85FF8C
:1043900003C00E94C10C10E2612F88EC0E94110B37
:1043A00080919B02813009F494C008F496C0823059
:1043B00009F43CC0833009F49AC0D12C4EC00F3FA1
:1043C000100709F09BCF01E813E06BEDE62E63E0E8
:1043D000F62E7CEBC72E73E0D72EF8018491F701FF
:1043E000A490F601B49070E060E0BB2099F08111D8
:1043F0000E946F02EB2DF0E0EE0FFF1FEA59FC4F19
:10440000A591B4918C91A82291E080E009F490E00C
:10441000692F782FF1E06F278DE00E94BB0266E9DB
:1044200070E080E090E00E940E03D7CFD12C809105
:104430000A03807F803189F40E94400368537F4FD4
:104440008F4F9F4F6093700270937102809372023E
:104450009093730290E290930A0327EDE22E23E0FB
:10446000F22E8701D8018D919D918D01009739F031
:10447000DC01ED91FC910680F781E02D0995E7EFD5
:10448000F3E0E017F10771F780910A03803409F433
:1044900066C080F5803209F44CC0803309F459C0FD
:1044A000813109F06CC01092F703D7018D919D9175
:1044B0007D01009739F0DC01ED91FC910480F581DC
:1044C000E02D09950E151F0581F782E180930A03FF
:1044D00056C023E120930A0370CF80910A03807FA6
:1044E000803109F46ACF81E180930A0366CFDD242D
:1044F000D3949DCF813509F4D2C0803809F4E2C04D
:104500008035E9F588EC0E94E50B86FFECC081E57B
:1045100080930A030E9440036C5E7F4F8F4F9F4F32
:104520006093700270937102809372029093730291
:1045300026C00E94400300917002109171022091E8
:10454000720230917302601B710B820B930B97FD0B
:10455000CAC061E088EE0E94110B80E4B7CF88EEFC
:104560000E94E50B80FDBFC088ED0E94E50B682F1F
:10457000686088ED0E94110BB0E5B0930A0380914A
:104580000A03803909F0AFC00E94400360938C0297
:1045900070938D0280938E0290938F021091350359
:1045A000809105038F830E944003C0908802D090C1
:1045B0008902E0908A02F0908B026C157D058E05D1
:1045C0009F0518F480910F018F83112359F19F816A
:1045D00080910E01981304C080918702811122C03E
:1045E0001F921F927F926F921F923F928824839412
:1045F000912CB12CA12C92E0C92EE12C09E021E2F2
:1046000040E06091170380911503909116030E947A
:1046100051118F8180930E010F900F900F900F908A
:104620000F900F9010938702111103C08FEF8093AA
:104630000E018CE992E00E947B05892B09F41BC2D4
:104640008CE992E00E9439058A3009F0E9C1C090F6
:104650000B03D0900C03C114D10449F000910F0357
:104660001091100376010115110509F054C08091D5
:104670000F0390911003892B09F414C100910B03CF
:1046800010910C0367EE71E0C8010E941328892B7A
:1046900009F07DC08BEE91E00E94590DFAC00E9496
:1046A00040030091700210917102209172023091CA
:1046B0007302601B710B820B930B97FD14C080E893
:1046C00080930A032D2D40E060E081E893E00E9492
:1046D0003F13882329F0823D09F451CF80EAF6CEBA
:1046E00020920A034CCF0E94400300918C0210914B
:1046F0008D0220918E0230918F02601B710B820B14
:10470000930B69397A438105910508F447CF0E94DC
:10471000D00B3ACF75015701FFEFAF1ABF0AD7018F
:104720008C91082E000C990B0E94B125892B91F7D2
:10473000015011090C0D1D1DF8018081082E000C7F
:10474000990B0E94B125892B31F00E151F0518F029
:1047500001501109F1CF0F5F1F4FA8014E195F09DA
:104760005093100340930F03CE14DF0420F4B701DD
:10477000C6010E940328E0910B03F0910C03809185
:104780000F0390911003E80FF91F108270CF6DEFA7
:1047900071E0C8010E941328892B19F482E092E08D
:1047A0007BCF67E072E0C8010E941328892B09F0D3
:1047B00079C08DE092E00E94080DC0907D02D090FB
:1047C0007E02E0907F02F09080024AE0C701B601CD
:1047D0000E94150D80E192E00E94080DC114D104E1
:1047E000E104F10471F06091790270917A02809194
:1047F0007B0290917C02A70196010E94F425690139
:104800007A014AE0C701B6010E94150D8BE192E0E2
:104810000E94080D60917502709176028091770276
:10482000909178024AE00E94150D84E292E00E9485
:10483000080D6091350370E090E080E04AE00E944E
:10484000150D80E392E00E94080D60910A0370E06C
:1048500090E080E040E10E94150D8AED91E00E9419
:10486000080D109275021092760210927702109243
:1048700078021092790210927A0210927B021092C2
:104880007C0210927D0210927E0210927F021092A2
:10489000800250E040E06CED71E08BE093E00E941C
:1048A000511AC7CE6BE372E0CE0101960E947C1ACA
:1048B000CE0101960E94AD0E182FCE0101960E94E6
:1048C000000D1123D9F040910F035091100364E0C3
:1048D00070E0CE0101960E948D1ACE0101960E94D1
:1048E0001E1A21E0672B682B692B09F420E0209326
:1048F0007402CE0101960E94000D33C063E472E0A1
:10490000CE0101960E947C1ACE0101960E94AD0E46
:10491000182FCE0101960E94000D112329F140911C
:104920000F035091100365E070E0CE0101960E94E4
:104930008D1ACE0101960E941E1A60930F01CE01BE
:1049400001960E94000D0E9440036056704F8F4FE9
:104950009F4F609388027093890280938A0290939C
:104960008B0280E492E098CE69E472E0CE01019679
:104970000E947C1ACE0101960E94AD0E182FCE0126
:1049800001960E94000D1123F1F040910F03509108
:10499000100366E070E0CE0101960E948D1ACE01F0
:1049A00001960E941E1A6F5F60938602CE010196E7
:1049B0000E94000D109282021092830210928402D3
:1049C00010928502CECF60E572E0CE0101960E9482
:1049D0007C1ACE0101960E94AD0E182FCE010196D1
:1049E0000E94000D83E592E0112309F455CE409119
:1049F0000F035091100362E070E0CE0101960E9417
:104A00008D1ACE0101960E941E1A21E0672B682B99
:104A1000692B09F420E0622F8DE00E94BB0269CF70
:104A20008D3009F406CE00910F0310911003083267
:104A3000110508F0FECD89831A820F5F1F4FB80160
:104A40008BE093E00E94291A882309F4F2CD20918B
:104A50000B0330910C0380910F0390911003BE0162
:104A60006F5F7F4F820F931F0E941C2810931003CB
:104A700000930F03DECD00918602002359F10E94BE
:104A80004003C0908202D0908302E0908402F090B4
:104A900085026C157D058E059F05E0F01091810261
:104AA000132510938102612F8DE00E94BB0211112A
:104AB00003C00150009386020E9440036A567F4F54
:104AC0008F4F9F4F60938202709383028093840282
:104AD000909385024114510409F451CC0E940000C6
:104AE0004CCC8BE093E00C94000D1F93FC019927B4
:104AF0008827BC01E89411911032E9F3193010F0C5
:104B00001E30C8F31B3251F01D3249F4689406C0C0
:104B10000E949C25610F711D811D911D11911053E3
:104B20001A30B0F33EF490958095709561957F4F63
:104B30008F4F9F4F1F910895592F482F372F262FA2
:104B4000660F771F881F991F660F771F881F991F91
:104B5000620F731F841F951F660F771F881F991F91
:104B6000089591110C94BA25803219F0895085501E
:104B7000C8F708959927882708952F923F924F925A
:104B80005F926F927F928F929F92AF92BF92CF92DD
:104B9000DF92EF92FF920F931F93CF93DF93CDB7E6
:104BA000DEB7CA1BDB0B0FB6F894DEBF0FBECDBF5E
:104BB00009942A88398848885F846E847D848C842F
:104BC0009B84AA84B984C884DF80EE80FD800C8138
:104BD0001B81AA81B981CE0FD11D0FB6F894DEBF1B
:104BE0000FBECDBFED010895A1E21A2EAA1BBB1B7B
:104BF000FD010DC0AA1FBB1FEE1FFF1FA217B307A9
:104C0000E407F50720F0A21BB30BE40BF50B661FBE
:104C1000771F881F991F1A9469F760957095809582
:104C200090959B01AC01BD01CF010895EE0FFF1FD0
:104C30000590F491E02D09940F931F93CF93DF9388
:104C40008230910510F482E090E0E091FA03F09157
:104C5000FB0330E020E0B0E0A0E0309799F42115AC
:104C6000310509F44AC0281B390B24303105D8F529
:104C70008A819B816115710589F1FB019383828390
:104C8000FE0111C0408151810281138148175907EB
:104C9000E0F04817590799F4109761F012960C93B9
:104CA000129713961C933296CF01DF91CF911F91EB
:104CB0000F9108950093FA031093FB03F4CF21158D
:104CC000310551F04217530738F0A901DB019A0171
:104CD000BD01DF01F801C1CFEF01F9CF9093FB03D4
:104CE0008093FA03CDCFFE01E20FF31F81939193DE
:104CF0002250310939832883D7CF2091F80330918E
:104D0000F903232B41F42091190130911A013093BA
:104D1000F9032093F8032091170130911801211510
:104D2000310541F42DB73EB740911B0150911C0154
:104D3000241B350BE091F803F091F903E217F30718
:104D4000A0F42E1B3F0B2817390778F0AC014E5FFB
:104D50005F4F2417350748F04E0F5F1F5093F9033C
:104D60004093F803819391939FCFF0E0E0E09CCFD4
:104D7000CF93DF930097E9F0FC0132971382128200
:104D8000A091FA03B091FB03ED0130E020E0109711
:104D9000A1F420813181820F931F2091F80330917B
:104DA000F9032817390709F061C0F093F903E0937C
:104DB000F803DF91CF910895EA01CE17DF07E8F5F8
:104DC0004A815B819E0141155105B1F7E901FB83E1
:104DD000EA8349915991C40FD51FEC17FD0761F47F
:104DE000808191810296840F951FE90199838883C0
:104DF000828193819B838A83F0E0E0E012968D911B
:104E00009C9113970097B9F52D913C911197CD0185
:104E10000296820F931F2091F8033091F90328170F
:104E2000390739F6309751F51092FB031092FA03C7
:104E3000B093F903A093F803BCCFD383C28340811E
:104E40005181840F951FC817D90761F44E5F5F4FDA
:104E500088819981480F591F518340838A819B81A2
:104E6000938382832115310509F0B0CFF093FB03C2
:104E7000E093FA039ECFFD01DC01C0CF13821282C2
:104E8000D7CFB0E0A0E0E7E4F7E20C94BF258C01B7
:104E9000009751F4CB010E941C268C01C801CDB7AC
:104EA000DEB7E0E10C94DB25FC01E60FF71F9C0167
:104EB00022503109E217F30708F49DC0D901CD91C2
:104EC000DC911197C617D70798F0C530D10530F39C
:104ED000CE0104978617970708F3C61BD70B2297B6
:104EE000C193D1936D937C93CF010E94B826D6CF06
:104EF0005B01AC1ABD0A4C018C0E9D1EA091FA03F9
:104F0000B091FB03512C412CF12CE12C109731F581
:104F10008091F8039091F9038815990509F05CC018
:104F20004616570608F058C0809117019091180155
:104F3000009741F48DB79EB740911B0150911C0121
:104F4000841B950BE817F90708F055C0F093F90397
:104F5000E093F803F90171836083A0CF8D919C9158
:104F6000119712966C90129713967C901397A81530
:104F7000B90559F56C0142E0C40ED11CCA14DB041A
:104F800020F1AC014A195B09DA011296159780F0FD
:104F90006282738251834083D9016D937C93E114C3
:104FA000F10471F0D7011396FC93EE93129776CF2C
:104FB00022968C0F9D1FF90191838083F301EFCF1F
:104FC000F093FB03E093FA0369CF4816590608F4FF
:104FD0002C017D01D3019ACFCB010E941C267C01BC
:104FE000009749F0AE01B8010E940328C8010E9451
:104FF000B826870153CF10E000E050CF81E090E069
:10500000F8940C943128FB01DC0102C001900D9250
:1050100041505040D8F70895DC0101C06D934150D4
:105020005040E0F70895FB01DC018D91019080195B
:105030000110D9F3990B0895FB01DC0101900D9249
:105040000020E1F70895FB01DC014150504030F0B1
:105050008D910190801919F40020B9F7881B990BE4
:10506000089511E0C8EFD1E004C0FE010E941626A9
:0C5070002196C93FD107C9F7F894FFCF83
:10507C00FFFFFFFF00E10000000000002A01FFFF1E
:10508C0000C180810000000000FC038000092101A8
:10509C0001000122450000000000670D0000000027
:1050AC00FA05000000001305FD04340529057B05F5
:1050BC003905570500000000AA0842090209980AA0
:1050CC00C61EF6FF00006F0A8B04A00A9F0AF10CA3
:1050DC00D01E8D09000000001C18E60A3B07761054
:1050EC00DA0AE50AE30AE10ADF0A54077207DD0A65
:1050FC009307D70A021E1C1AFEFF0000BC1E0000FC
:10510C0000001C18E60A3B07AA0FDA0AE50AE30AB4
:10511C00E10ADF0A54077207DD0AC20AD70AA70A96
:10512C00D50AC10AFEFF0000B70A00000000C31632
:10513C00E60A9505C215BC056816E30AB705DF0A31
:10514C00000000007708220800080D0A0055200016
:10515C004420005250540057484F004C454F4E418C
:10516C0052444F2D4D4143524F5320310050494E24
:10517C004700504F4E47005354415453006E3D006E
:10518C00206D656469615F75733D00206D61785FAA
:10519C0075733D00206869645F6C6973746F3D00C2
:1051AC002065737461646F3D307800444247200081
:1051BC004F4B004C45445320004C41594552200064
:0651CC004C20003F000032
:00000001FF
