:100000000C948E020C94B6020C94B6020C94B602B8
:100010000C94B6020C94B6020C94B6020C94B60280
:100020000C94B6020C94B6020C944B1E0C94BA1E9F
:100030000C94B6020C94B6020C94B6020C94B60260
:100040000C94B6020C94B6020C94B6020C94B60250
:100050000C94B6020C94B6020C94B6020C94011ED9
:100060000C94B6020C94B6020C94B6020C94B60230
:100070000C94B6020C94B6020C94B6020C94B60220
:100080000C94B6020C94B6020C94B6020C94B60210
:100090000C94B6020C94B6020C94B6020C94B60200
:1000A0000C94B6020C94B6020C94B6022052505432
:1000B00000455000000000000000000000000000AB
:1000C000000000002A002B002800000000000000B3
:1000D0000000000000000000000000000000000020
:1000E0000000000000000000000000000000000010
:1000F000000000002C001E02340220022102220215
:10010000240234002602270225022E0236002D008A
:100110003700380027001E001F00200021002200A9
:1001200023002400250026003302330036022E006F
:10013000370238021F020402050206020702080203
:1001400009020A020B020C020D020E020F0210023B
:1001500011021202130214021502160217021802EB
:1001600019021A021B021C021D022F00310030006E
:1001700023022D02350004000500060007000800D8
:1001800009000A000B000C000D000E000F0010000B
:1001900011001200130014001500160017001800BB
:1001A00019001A001B001C001D002F023102300232
:1001B0003502000000000000000000000000000008
:1001C000000000000000000000000000000000002F
:1001D000000000000000000000000000000000001F
:1001E000000000000000000000000000000000000F
:1001F00000000000000000000000000000000000FF
:1002000000000000000000000000000000000000EE
:1002100000000000000000000000000000000000DE
:1002200000000000000000000000000000000000CE
:1002300000000000000000000000000000000000BE
:1002400000000000000000000000000000000000AE
:10025000000000000000000000000000000000009E
:10026000000000000000000000000000000000008E
:10027000000000000000000000000000000000007E
:10028000000000000000000000000000000000006E
:10029000000000000000000000000000000000005E
:1002A000000000000000000000000000000000004E
:1002B0000000000005010906A101050719E029E772
:1002C00015002501750195088102050C9501750839
:1002D000150026FF00190029FF81000508190129D2
:1002E0000895087501910205079506750815002601
:1002F000E700190029E78100C0080B000202020094
:10030000000904000001020200000524001001059C
:1003100024010101042402060524060001070581C9
:100320000310004009040100020A00000007050252
:100330000240000007058302400000040309041284
:10034000010002EF02014041233680000101020357
:100350000141726475696E6F204C4C4300417264B8
:1003600075696E6F204C656F6E6172646F0000007E
:1003700000002300260029002C002F00454E4400D9
:1003800045525220004E4F44455649434500454E84
:100390004400206869646C656E0020706F77657238
:1003A0003D00206966616365733D00206366676C8C
:1003B000656E3D002073657269616C3D002070724E
:1003C0006F643D00206D66723D00206570303D0019
:1003D00020636C6173733D00207573623D00206281
:1003E00063643D00207069643D007669643D0045AA
:1003F00052522064657363726970746F72004E4F5D
:10040000444556494345003F004F4B004F4B004F7A
:100410004B004F4B004F4B0020636170747572614D
:100420003D002065737461646F3D30780020686919
:10043000645F6C6973746F3D00206D61785F7573E4
:100440003D00206D656469615F75733D006E3D0020
:100450004F4B004552522073696D004F4B004F4B7C
:10046000004F4B00455252206D61736B00504F4E50
:1004700047004E554D4445434B2D46572033004BC6
:100480002030004B2031000000000200090F000066
:10049000030401000C000000000000000000000048
:1004A00000000000000000000000250028002B00D4
:1004B0002E00310000000000240027002A002D003B
:1004C00030000404040404030405020202020403CD
:1004D00002020202060606060606040402020204DE
:1004E0000404080201104080401020408040800831
:1004F00002040180402010020110801020404020A2
:10050000050C0901A1018504150026FF0319002A25
:10051000FF03950475108100C000EA2111241FBE5D
:10052000CFEFDAE0DEBFCDBF24E0AEE4B2E001C041
:100530001D92AC3FB207E1F712E0A0E0B1E0ECE3BE
:10054000F7E502C005900D92AE34B107D9F712E07D
:10055000CEE8D2E004C02197FE010E94732BCD3873
:10056000D107C9F70E94D5230C949C2B0C94000052
:100570008CBD9DBD089590E0FC01EF51FB4F24918F
:100580008E539B4FFC018491882399F090E0880F53
:10059000991FFC01EC54FB4FA591B491FC01EA5565
:1005A000FB4F859194918FB7F894EC91E22BEC93EB
:1005B0008FBF0895FC0180917303882311F13FB729
:1005C000F89482E08093E9002091F200822F90E07D
:1005D0001816190614F481E090E0882339F0289861
:1005E00044E6409372034091F1004083222339F0A6
:1005F0002091F200211103C02BE62093E8003FBFB9
:1006000008958FEF9FEF089581508F3008F047C015
:10061000E82FF0E0E25FFC4F0C94732B2B032F03C9
:100620001D03230327034F034F034F0332033803F4
:100630003C03400346034F034A03809180008F77B9
:10064000809380000895809180008F7DF9CF809104
:100650008000877FF5CF84B58F7784BD089584B5FA
:100660008F7DFBCF809190008F77809390000895CD
:10067000809190008F7DF9CF80919000877FF5CF9A
:100680008091C0008F778093C00008958091C00052
:100690008F7DF9CF8091C200877F8093C20008953B
:1006A0001F93CF93DF93282F30E0F901E957FB4FD9
:1006B0008491F901EF51FB4FD491F901EE53FB4FB7
:1006C000C491CC23A9F0162F81110E940403EC2FB2
:1006D000F0E0EE0FFF1FEA55FB4FA591B4918FB7E5
:1006E000F894EC91111108C0D095DE23DC938FBFF4
:1006F000DF91CF911F910895DE2BF8CF3FB7F8948B
:1007000080916E0390916F03A0917003B09171037B
:1007100026B5A89B05C02F3F19F00196A11DB11D5C
:100720003FBFBA2FA92F982F8827BC01CD01620F98
:10073000711D811D911D42E0660F771F881F991F53
:100740004A95D1F708958F929F92AF92BF92CF9220
:10075000DF92EF92FF924B015C010E947E036B01DE
:100760007C010E947E036C197D098E099F09683EF9
:10077000734081059105A8F321E0821A9108A10830
:10078000B10888EEC80E83E0D81EE11CF11C81146C
:100790009104A104B10429F7FF90EF90DF90CF906E
:1007A000BF90AF909F908F9008952FB7F89460916D
:1007B0006A0370916B0380916C0390916D032FBF5E
:1007C000089540917302509174022091710230910A
:1007D000720242175307B4F49091E8009570E1F368
:1007E0009091E80092FD19C08093F100809173020E
:1007F0009091740201968F739927892B19F48EEFCB
:100800008093E80080917302909174020196909316
:1008100074028093730281E0089580E00895DF926E
:10082000EF92FF920F931F93CF93DF93D82E8A01FD
:10083000EB017B01E40EF51ECE15DF0559F0D7FE66
:1008400012C0FE0184910E94E10321968111F4CF30
:100850000FEF1FEFC801DF91CF911F910F91FF9014
:10086000EF90DF9008958881EECF2FB7F8948770CE
:100870008093E9009091E800892F807295FF04C071
:100880009091F20080E4891B2FBF08957F928F9290
:100890009F92AF92BF92CF92DF92EF92FF920F930F
:1008A0001F93CF93DF93C82E8B017A01809173033E
:1008B000811110C08FEF9FEFDF91CF911F910F91AA
:1008C000FF90EF90DF90CF90BF90AF909F908F9070
:1008D0007F9008958091770280FF05C08091E000AD
:1008E00082608093E000CE2DDF2DD12C8AEFB82ED0
:1008F0008C2D8770982E8C2D8072882E8C2D807474
:10090000782E9AE3A92E209719F4DD2009F452C01D
:100910008C2D0E94350481110AC0BA94BB2051F27B
:1009200061E070E080E090E00E94A303ECCF8C17C0
:100930001D0611F00CF08C2F9FB7F8949092E900EF
:100940002091E80025FD02C09FBFDDCF282F30E0B9
:10095000C21BD30B882029F08150A0F01092F10027
:10096000FBCFF801C7FC0AC0815050F04191409381
:10097000F100FACF44914093F10031968150D0F7C5
:10098000020F131FDD2021F0A092E800D12CDCCF54
:100990008091E80085FD07C0A092E800DD24D39493
:1009A000209791F2F3CF209779F6772069F2A09201
:1009B000E800CACF5D9884E680937602C7017CCFB9
:1009C000615030F02091F100FC0120830196F8CFB6
:1009D000289884E6809372030895AF92BF92DF92C5
:1009E000EF92FF920F931F93CF93DF935C018B01E4
:1009F000EB019BEFD92E2097C1F07E01C134D105C8
:100A00001CF080E4E82EF12C8091E80082FFFCCFFE
:100A1000C8018C1B9D0B6E2D8A0D9B1D0E94E0044E
:100A2000D092E800CE19DF09E6CFC801DF91CF915F
:100A30001F910F91FF90EF90DF90BF90AF900895BE
:100A4000AF92BF92CF92DF92EF92FF920F931F93DC
:100A5000CF93DF936C017B018B01040F151FEB011A
:100A60005E01AE18BF08C017D10759F06991D601D1
:100A7000ED91FC910190F081E02DC6010995892B43
:100A800079F7C501DF91CF911F910F91FF90EF9002
:100A9000DF90CF90BF90AF9008958091690281114F
:100AA0000DC082E08093650284E08093660210921C
:100AB00068021092670281E08093690285E692E005
:100AC00008950F931F93CF93DF931F92CDB7DEB797
:100AD00082E0898342E450E069EF72E080E80E949E
:100AE0000F040E944D05DC0112960D911C91011519
:100AF000110589F0D801ED91FC910280F381E02D80
:100B0000BE016F5F7F4FC801099597FD04C0F801D2
:100B100000851185ECCF89810F90DF91CF911F91D6
:100B20000F910895CF93DF93FC01DB01818114962F
:100B30003C911497682F630F7727771F68307105F2
:100B40009CF5C281D381209739F5B383A28390812C
:100B500012969C93129713968C93139715968C91DB
:100B60001597890F808390E080E0831708F5218135
:100B7000C22FD0E0BE0160507F4F16964D915C9120
:100B80001797480F591FEA014881EB0148832F5FEF
:100B900021830196EACFEA0148855985411551051F
:100BA000D1F7B987A887D3CF80E0DF91CF9108959F
:100BB00081E0FBCFCF93DF93EC018091120188237A
:100BC00031F083E00E9446041816190634F081E0E3
:100BD00090E09B838A8380E090E0DF91CF9108953D
:100BE000CF93DF931F92CDB7DEB76983DC01ED9120
:100BF000FC910280F381E02D41E050E0BE016F5F87
:100C00007F4F09950F90DF91CF9108950F931F9318
:100C1000CF93DF938C01D0E0C0E0F801EC0FFD1F13
:100C20006491662341F085E793E00E94F005892BEB
:100C300011F02196F2CFCE01DF91CF911F910F914C
:100C4000089583E08093E9008091F200882319F0F1
:100C50008AE38093E800089583E00E94350490E0E1
:100C60000895CF93DF931F92CDB7DEB7FC01848543
:100C7000958597FD08C02FEF3FEF358724870F90AC
:100C8000DF91CF910895CE0101960E94DA0201977B
:100C900019F4898190E0F3CF8FEF9FEFF0CF0F939E
:100CA0001F93CF93DF931F92CDB7DEB78C01FC016A
:100CB0008485958597FF0BC0CE0101960E94DA02CC
:100CC000019771F4898190E0F80195878487F80194
:100CD000848595850F90DF91CF911F910F91089595
:100CE0008FEF9FEFF1CFFC018485958597FD0BC0B9
:100CF0009FB7F89482E08093E9008091F2009FBF53
:100D000090E0019608959FB7F89482E08093E900FF
:100D10008091F2009FBF90E00895CF93DF93EC01A4
:100D20008A819B81DC01ED91FC910480F581E02DAD
:100D30006A8509958A85813439F4EA81FB81EA580C
:100D4000FF4F8081846080831A861B861C861D86E7
:100D50001E861F86188A80E0DF91CF91089581E07A
:100D6000693009F080E00895FC01828508950F93B1
:100D70001F93CF93DF93FC018B01EA018081918166
:100D8000892B31F19281992349F128813981232BD3
:100D9000F9F0D8012D913C91D9014C918381682FB4
:100DA000691B770B80819181860F971FDC014C9323
:100DB0008281815082838881998101979983888378
:100DC000D8018D919C91119701968D939C93DACFC8
:100DD00080E0DF91CF911F910F91089583818283ED
:100DE00081E0F7CF3F924F925F926F927F928F9206
:100DF0009F92AF92BF92CF92DF92EF92FF920F93AA
:100E00001F93CF93DF9300D000D0CDB7DEB76C0136
:100E10007A8369835C834B8384E0482E360182E1C8
:100E2000680E711C93E0392E5601A7E0AA0EB11C82
:100E300012E0552453944601B0E18B0E911C298198
:100E40003A812115310509F4CBC0F60180A1823029
:100E5000F1F0A8F5882309F457C0813091F7AE016D
:100E60004F5F5F4FBE016D5F7F4FC5010E94B706A8
:100E7000882309F4B5C0D6011596ED91FC9116971B
:100E8000808191968C939197818192968C93F601B3
:100E90007682658230A2D60192968C9192978430A8
:100EA00011F493961C92F60181A1825084832581CE
:100EB0003681308727838287818740A205C08330AF
:100EC00051F3843009F0BDCFD60192968C91929760
:100ED000843019F1853009F44CC0823009F073C0B8
:100EE000AE014F5F5F4FBE016D5F7F4FC5010E9436
:100EF000B706882309F474C0F601858984A3F60136
:100F00009682858210A29BCF1483858196819087DB
:100F100087831287118750A2A2CFAE014F5F5F4F28
:100F2000BE016D5F7F4FC5010E94B706882309F49B
:100F300057C0D60155968C915597833001F79896F6
:100F40008C9198978111DBCF93965C9293975296F0
:100F50008C91529796968C93969753968C91539723
:100F600097968C93979757968C91579795968C93C5
:100F7000C6CFAE014F5F5F4FBE016D5F7F4FC501B2
:100F80000E94B706882361F1F60183A1882309F442
:100F9000B6CF82819381009709F4B1CFDC01ED9146
:100FA000FC910190F081E02D7401D60195960C9191
:100FB000959797962C91979796964C91969794968D
:100FC0006C9109959CCFF60185858823F9F08130D5
:100FD00041F1D6011E968D919C91892B09F48FCFFA
:100FE0000F900F900F900F90DF91CF911F910F9165
:100FF000FF90EF90DF90CF90BF90AF909F908F9039
:101000007F906F905F904F903F90089591968C9154
:1010100091978250990B1F969C938E931E971D96C5
:101020005C9229813A818B819C81782F692FF6010E
:10103000468557854115510581F0019621153105E9
:1010400039F0415051095787468721503109EDCF7A
:101050001A8219827B836C83BCCF3A8329839C8359
:101060008B831586B6CFCF93DF93EC018C819D8166
:10107000DC01ED91FC910480F581E02D6E810995F4
:1010800081E08E8F1E821F8E18A219A21AA21CA2A6
:1010900080E0DF91CF910895FC01DC01A65ABF4F9B
:1010A0008C918823A1F08781681741F0828521E027
:1010B00030E0681729F090E080E0089530E020E00B
:1010C000C901880F991F820F931FE80FF91F8085B0
:1010D00091850895FC018781811104C080859185E7
:1010E000892B59F08285811106C08385948521E082
:1010F00030E0892B21F080E0089530E020E0C90144
:10110000880F991F820F931FE80FF91F678351877C
:10111000408781E008950895DF92EF92FF920F9348
:101120001F93CF93DF93EC0185E0E62EF12CFE01B7
:10113000869FE00DF11D1124908596FF24C0192F84
:10114000177001E085E0D82E8FEF800F8F3008F008
:1011500001E0602F70E0062FD69EF001D79EF00DC3
:101160001124EC0FFD1F80858695869586958770E6
:10117000181701F16F5F7F4F603168F38D81811324
:1011800002C011501D8385E08E9DF0018F9DF00DF2
:101190001124EC0FFD1F108681E0818712862296B4
:1011A000D783C683DF91CF911F910F91FF90EF906E
:1011B000DF900895CE010E948C08C6CFFC012081EB
:1011C0002EBD9B012150310941F051810DB407FE24
:1011D000FDCF4EB55EBD4193F5CF61507109860FCD
:1011E000971F0DB407FEFDCF2EB5FC012083089597
:1011F000FC0121E0613499F49C01255B3F4F61E0E3
:10120000AC014E5F5F4F158666871786548743870C
:1012100035962E173F07B9F7FC01158208953585DD
:10122000631729F02F5F35962031C9F70895622F93
:101230000C948C08CF93DF93FC0167FD12C028301B
:1012400080F4442319F08581873059F0EF01A1E043
:10125000B0E08D85882349F111962596A031B1051E
:10126000C1F780E018C085E08A9FE0018B9FD00D18
:101270001124CE0FDF1F442389F081E48887858104
:101280008F5F858325E02A9FC0012B9F900D11243D
:10129000E80FF91F8085DF91CF91089581E088875D
:1012A000F1CF2770687B622B0FC06623E1F2677075
:1012B000660F660F660F4423A1F3606485818F5F1C
:1012C00085838770687F682B25E02A9FC0012B9F4C
:1012D000900D1124E80FF91F6087862FDCCFFC01E9
:1012E00021E0611102C0069608953585631739F033
:1012F0002F5F35962031C9F790E080E0089506967B
:1013000035E0239F800D911D112408950F931F93A5
:10131000CF93DF932115310599F0E901042F162FA2
:101320000E946F09FC0186ED309729F01283D1836A
:10133000C083038380E0DF91CF911F910F910895C7
:1013400088EDF9CFDC01FB0112962C911297848174
:1013500095812817190641F491818081813A31F4F1
:101360009D7F81E0913009F080E008958132E1F7BE
:101370009B3029F482811F968C9381E008959A30E6
:1013800099F7828150968C93F8CFDC01FB0188E4B9
:10139000808389E4818384E482831D969C911D97D8
:1013A0009F709F5B93831D968D919C9124E09695F1
:1013B00087952A95E1F78F708F5B848385E0089588
:1013C000EF92FF920F931F93CF93DF93FB01208146
:1013D000213871F52381223259F5DC0112964C91A6
:1013E000248135814217130619F5EC010B851C8504
:1013F000F12CE12C0115110589F0F801448155818A
:101400006281738180E80E940F048F3F980749F042
:10141000E80EF91ED8010D911C91ECCF81E08F8769
:10142000C701DF91CF911F910F91FF90EF90089529
:1014300090E080E0F6CFCF93DF93CDB7DEB769972A
:101440000FB6F894DEBF0FBECDBFFC01DB018C915F
:101450008F5F8C939E012D5F3F4F8DE0D9011D92D0
:101460008A95E9F729E0298384E08A8391E09D83C6
:1014700083E08E832A8721E22B879C879D879F8725
:1014800022E2288B27E02B8B25E02C8B8E8B20E40F
:1014900030E0388F2F8B998F82818B83958586855D
:1014A000998B8A8B838180688D8B49E150E0BE01E6
:1014B0006F5F7F4F80E00E940F0469960FB6F8942B
:1014C000DEBF0FBECDBFDF91CF910895CF93DF93E5
:1014D000EC01FB012A81848195812817190609F006
:1014E0004BC081819081913A79F4813029F0833029
:1014F00039F48F898093F10081E0DF91CF910895D5
:101500008230D1F5888DF6CF9132B1F58B3019F458
:1015100082818F8BF1CF8A3019F48381888FECCF51
:10152000893051F5668177818381833079F48C8DA0
:101530009D8D6817790701F58A8D9B8D0E94ED04BA
:101540008C8D9D8D90689D8F8C8FD6CF823051F47D
:101550006130710589F461E070E0CE0149960E9426
:10156000ED04CACF813041F46830710529F468E098
:1015700070E0CE010E96F3CF80E0BFCFCF93DF9324
:10158000CDB7DEB729970FB6F894DEBF0FBECDBF3B
:10159000FC014281FB01248135814217130659F574
:1015A0002081213841F523812132D1F489E0E5E120
:1015B000F1E0DE01119601900D928A95E1F749E084
:1015C00050E0BE016F5F7F4F80E00E940F042996BC
:1015D0000FB6F894DEBF0FBECDBFDF91CF91089557
:1015E000223249F421E0FC01278B45E450E064EB12
:1015F00072E080E8EACF90E080E0E9CFCF93DF931C
:10160000CDB7DEB769970FB6F894DEBF0FBECDBF7A
:10161000FC01DB019C919F5F9C939E012D5F3F4FDE
:1016200081E1D9011D928A95E9F729E0298384E0B7
:101630008A8391E09D8383E08E839F8398872A87A6
:1016400021E22B879C879D879F8722E2288B25E4B8
:10165000298B27E02B8B25E02C8B8E8B20E430E030
:10166000388F2F8B998F82818B83838180688D8BBC
:1016700049E150E0BE016F5F7F4F80E00E940F04A0
:1016800069960FB6F894DEBF0FBECDBFDF91CF9144
:101690000895CF93DF93DC0190E2960F9830B0F479
:1016A00014968C91149721E030E001C0220F9A9596
:1016B000EAF7442341F0282B14962C9381E090E024
:1016C000DF91CF91089520952823F6CFFD0136961E
:1016D0004423D1F0CD010C96EF012991621771F3EB
:1016E000C817D907D1F790E080E02191211105C0FA
:1016F000A80FB91F16966C93E1CF0196863091051D
:10170000A1F790E080E0DCCF90E080E021916213CF
:1017100005C0A80FB91F16961C92D0CF019686302F
:101720009105A1F7EECFCF92DF92FF920F931F9317
:10173000CF93DF938C01F42EE62FF0E0EE0FFF1F26
:10174000EC54FF4FC590D490D801ED91FC910484E6
:10175000F585E02D6C2DC8010995EC01892B11F45C
:10176000F11070C0D0FE0CC0D801ED91FC91048442
:10177000F585E02D4F2D60EEC8010995C82BD92BBA
:10178000D1FE0CC0D801ED91FC910484F585E02DCB
:101790004F2D61EEC8010995C82BD92BD2FE0CC084
:1017A000D801ED91FC910484F585E02D4F2D62EE7A
:1017B000C8010995C82BD92BD3FE0CC0D801ED91D7
:1017C000FC910484F585E02D4F2D63EEC801099549
:1017D000C82BD92BD4FE0CC0D801ED91FC91048408
:1017E000F585E02D4F2D64EEC8010995C82BD92B46
:1017F000D5FE0CC0D801ED91FC910484F585E02D57
:101800004F2D65EEC8010995C82BD92BD6FE0CC00B
:10181000D801ED91FC910484F585E02D4F2D66EE05
:10182000C8010995C82BD92BD7FE0CC0D801ED9162
:10183000FC910484F585E02D4F2D67EEC8010995D4
:10184000C82BD92BCE01DF91CF911F910F91FF9023
:10185000DF90CF900895FF920F931F93CF93DF9364
:10186000EC01F62E41E00E94930B8C01892BA9F02C
:10187000E881F9810284F385E02DCE01099540E0ED
:101880006F2DCE010E94930B892B39F0E881F981ED
:101890000284F385E02DCE010995C801DF91CF9137
:1018A0001F910F91FF900895FC0182818F5BFB01D6
:1018B000808381E00895089590E080E00895CF92BC
:1018C000DF92EF92FF921F93CF93DF931F92CDB7DA
:1018D000DEB77B016A018091F40381112CC011E015
:1018E0001093E7031093E8038DEE93E09093EA03DF
:1018F0008093E9031092EC031092EB0386E691E0EB
:101900009093E4038093E3031092EF031092EE03AD
:101910001092F1031092F0031093F2031093F3036B
:1019200081EC8093ED030E944D0563EE73E00E940D
:1019300092051093F40384E0898341E050E0BE01F6
:101940006F5F7F4F8091E6030E94460497FD07C0BA
:101950008091E603A601B70180640E9446040F90BF
:10196000DF91CF911F91FF90EF90DF90CF9008957E
:10197000ECE0F4E030E020E0419151912F5F3F4FE7
:10198000452B79F4220F331FF901E65FFB4F91835A
:10199000808348E050E06CE074E08AE094E00C94CE
:1019A0005F0C2430310541F7F4CFEAE0F4E0228106
:1019B00033812817390711F413821282329624E0FA
:1019C000E231F207A1F748E050E06CE074E08AE011
:1019D00094E00C945F0C2E9808952E9A0895982FF9
:1019E00080ED890F8A3070F08FE9890F863018F406
:1019F00089EA890F08958FEB890F863010F489ECFE
:101A0000F8CF80E008950F931F93CF93DF938C015D
:101A1000D801ED91FC9111978081803221F43196AB
:101A2000ED93FC93F5CFD0E0C0E0D801ED91FC91AF
:101A3000908180ED890F8A3020F09F7D91549630FF
:101A400078F484E0CC0FDD1F8A95E1F7CF01019691
:101A5000D8018D939C9380810E94EF0CC82BE5CF19
:101A6000CE01DF91CF911F910F910895FC01640F7A
:101A7000751F64177507B9F1DA018D91AD012281E7
:101A8000211108C083832F5F22838381281788F365
:101A90001282EFCF213011F48483F5CF94819430FA
:101AA00049F4223081F785839089891760F38F5F2D
:101AB000808BE9CF913239F7273011F48787E3CF54
:101AC000283009F7A581A430F0F6B0E0AA0FBB1FBB
:101AD000AE0FBF1F978589279827892718969C9353
:101AE0008E931797D0CF089581E008950F931F9399
:101AF000CF93DF9300D000D000D0CDB7DEB7809178
:101B00007303882309F45FC0FE01319686E0DF018C
:101B10001D928A95E9F745E552E080E0DA019D9152
:101B2000AD01992331F09F01280F311DD9019C93FC
:101B30008F5FB2E04B355B0711F0863079F750913B
:101B40007E020FE712E090E05917F9F08630E8F4D2
:101B50009F0140E0622F6E1B681748F4D9017D9108
:101B60009D01D8016C917613F5CF41E0F3CF41117F
:101B700008C09F01280F311DD8014C91D9014C9309
:101B80008F5F9F5F0F5F1F4FDFCF8091610290914A
:101B90008502892B8093D303A5EDB3E0CE01079690
:101BA00021912D938E179F07D9F785EC93E0269608
:101BB0000FB6F894DEBF0FBECDBFDF91CF911F915E
:101BC0000F910C94DD2126960FB6F894DEBF0FBE60
:101BD000CDBFDF91CF911F910F910895CF93C82F63
:101BE000E82FF0E084E0F595E7958A95E1F7E85174
:101BF000FE4F608185E793E00E94F005CF70EC2FE7
:101C0000F0E0E851FE4F608185E793E0CF910C94BE
:101C1000F005EF92FF920F931F93CF93DF937C0118
:101C2000EA018B01040F151FC017D107A1F089919C
:101C30000E94EE0DF7018281938101969383828346
:101C40008F7199276AE0892B09F060E285E793E0BC
:101C50000E94F005E9CFDF91CF911F910F91FF9086
:101C6000EF900895CF92DF92EF92FF92C090B4026E
:101C7000D090B502E090B602F090B702C114D10442
:101C8000E104F10471F00E94D503AB01BC014C19D1
:101C90005D096E097F0981E048385341610571058E
:101CA00008F080E0FF90EF90DF90CF9008953F9292
:101CB0004F925F926F927F928F929F92AF92BF925C
:101CC000CF92DF92EF92FF920F931F93CF93DF9308
:101CD00000D000D000D0CDB7DEB77C01962E0E9498
:101CE0007E032B013C01D7018C918093610280908F
:101CF000870287010E5F1F4FF70138967F0188200A
:101D000099F158016801D6013D906D01B3E0B3151A
:101D1000F8F4EBE5F2E080E09191931101C0882D99
:101D200092E0E136F907C1F7811112C067E585E756
:101D300093E00E94F00560E285E793E00E94F005E1
:101D4000832D0E94EE0D6AE085E793E00E94F00586
:101D5000CE14DF04C1F6EBE5F2E0D5018D915D0113
:101D60008193AC15BD05C9F70E94320EC82EE5E57A
:101D7000F2E0D12CD8018D918D01811122C0108209
:101D800031960E151F05B1F7CC2009F4FFC08E0166
:101D90000F5F1F4F7801B02E209154028E2D801BB3
:101DA0008D1508F056C0EEE4F2E080E090E0821776
:101DB00071F14191D7013C91431301C09C2D8F5F7C
:101DC000F6CFCC2011F1843000F1282F30E093E0E1
:101DD000359527959A95E1F72C563D4FD9012C91D1
:101DE00030E0982F977002C0359527959A95E2F7C5
:101DF00020FF0BC0108221E030E02C0F3D1F2D0D85
:101E0000311DD9018C93D394BBCF8083B9CF91116D
:101E10001CC064E485E793E00E94F00560E285E77A
:101E200093E00E94F005F70180810E94EE0D60E2D0
:101E300085E793E00E94F005809161020E94EE0D1B
:101E40006AE085E793E00E94F005FFEFEF1AFF0AD2
:101E5000A3CFF12C80915402F81658F0EEE4F2E092
:101E6000802F8B198D1578F5D8018D918D01819377
:101E7000F7CFF80180E0AF2DB0E0A25BBD4F9E2F01
:101E80009B199D1530F421919C912913F8CF8C2D2D
:101E9000F6CF811116C065E585E793E00E94F00555
:101EA00060E285E793E00E94F005EF2DF0E0E25B51
:101EB000FD4F80810E94EE0D6AE085E793E00E946D
:101EC000F005F394C7CFD0925402911002C00E9443
:101ED000760D0E947E03DC01CB0184199509A609C9
:101EE000B7090091900210919102209192023091D5
:101EF00093020F5F1F4F2F4F3F4F0093900210939D
:101F00009102209392023093930200918C021091DF
:101F10008D0220918E0230918F02080F191F2A1F07
:101F20003B1F00938C0210938D0220938E023093FE
:101F30008F02009188021091890220918A023091CB
:101F40008B02081719072A073B0740F48093880281
:101F500090938902A0938A02B0938B0226960FB6C3
:101F6000F894DEBF0FBECDBFDF91CF911F910F91CF
:101F7000FF90EF90DF90CF90BF90AF909F908F90A9
:101F80007F906F905F904F903F9008951092540211
:101F90009CCFFC0184A10895FC018681089580E016
:101FA000089581E0089580E0089580E008950895FF
:101FB00080E0089508950F931F93CF93DF93D82F58
:101FC000C62F8A0180E591E00E94B8020E94EB0CC6
:101FD000D260DEBDF8018C2F882339F00DB407FEE6
:101FE000FDCF91919EBD8150F7CFC00FD12FD11D54
:101FF0000DB407FEFDCF0E94ED0CCE01DF91CF9115
:102000001F910F9108950F931F93CF93DF9300D0EB
:10201000CDB7DEB7182F062F80E591E00E94B802F9
:102020000E94EB0C126019830A8362E070E0CE011B
:1020300001960E94DE080E94ED0C0F900F90DF9138
:10204000CF911F910F9108959F92AF92BF92CF921F
:10205000DF92EF92FF920F931F93CF93DF936C0168
:10206000C42FD22F99249394E62EF12CEE0CFF1C52
:10207000E80EF91E86E5E80EF11CA42EB12CABE2A9
:10208000AA0EB11CAA0CBB1CAC0CBD1CF7018081B4
:102090009181DC01ED91FC910280F381E02D202FF4
:1020A0004D2F6C2F0995182F803EC9F5C1112BC0FB
:1020B00061E088EE0E94031066E670E080E090E048
:1020C0000E94A303F70180819181DC01ED91FC91D5
:1020D0000190F081E02D202F4D2F6C2F0995182FA6
:1020E0008D30D1F58FEF890D8330F8F0C11137C0F5
:1020F00061E088EE0E94031066E670E080E090E008
:102100000E94A3031CC0F50180819181DC01ED9147
:10211000FC910284F385E02D6D2F0995D3CF8D308E
:1021200061F48FEF890D833050F464E670E080E055
:1021300090E00E94A3039394A9CF882319F2812FE2
:10214000DF91CF911F910F91FF90EF90DF90CF9093
:10215000BF90AF909F900895882389F3C7CF8C2FAD
:1021600090E08B96880F991F8C0D9D1DFC0180813E
:102170009181DC01ED91FC910284F385E02D6D2FBE
:102180000995DDCF69E188E80E94031068E572E0F7
:1021900080E090E00E94A30368E188E80C940310BB
:1021A0008EBD00000DB407FEFDCF8EB50895CF9310
:1021B000C82F80E591E00E94B8020E94EB0C8C2FA2
:1021C0000E94D01080E00E94D010C82F0E94ED0C19
:1021D0008C2FCF9108958F929F92AF92BF92CF9202
:1021E000DF92EF92FF920F931F93CF93DF93882E8E
:1021F000962E5A010E94D5036B017C0128E8C20E7D
:1022000023E1D21EE11CF11C10E000E0D0E0C0E0B0
:1022100098280E94D5036C197D098E099F0997FFA4
:102220001EC0692D80EF0E9403100E94D5036C1917
:102230007D098E099F0997FF09C088EC0E94D7107D
:1022400087FFF3CF60E888EC0E94031088EF0E94BC
:10225000D710C82FCF70C43081F0CE30B9F08C2F9A
:10226000DF91CF911F910F91FF90EF90DF90CF9072
:10227000BF90AF909F908F9008950F5F1F4FA11454
:10228000B10439F20A151B0521F6E9CFDF5FD3301F
:1022900009F0BFCFE4CFAF92BF92CF92DF92EF921F
:1022A000FF920F931F93CF93DF93EC01B62EA42ED2
:1022B00069010E946F097C0186EDE114F10409F4C3
:1022C00047C0D701ED91FC91119787ED309709F444
:1022D0003FC013969C9180E0981731F02081A216A0
:1022E00029F033968F5FF8CFF0E0E0E0D601ED9370
:1022F000FC938BED309761F1228126952695203154
:1023000008F02FE081E090E0A0E0B0E004C0880F8A
:10231000991FAA1FBB1F2A95D2F70197F801918335
:1023200080836B2D80EE0E94031088ED0E94D710F1
:10233000D70114969C91682F697F992329F0CA5878
:10234000DF4F68816260682B88ED0E94031080E097
:10235000DF91CF911F910F91FF90EF90DF90CF9081
:10236000BF90AF90089588EF0E94D710807C803492
:10237000B1F018F4882301F10895803819F0803CF9
:10238000C9F0089588ED0E94D71081FD0DC069EC59
:1023900088ED0E94031082E080937403089588ED15
:1023A0000E94D71081FDF3CF6BEC88ED0E940310E3
:1023B00083E0F2CF81E0F0CF61ED88ED0E94031061
:1023C000109274030895FC019C01285F3F4F90E038
:1023D00080E044814111019614823196E217F3079F
:1023E000C1F708952F923F924F925F926F927F9222
:1023F0008F929F92AF92BF92CF92DF92EF92FF9215
:102400000F931F93CF93DF937B013A016901F90189
:10241000A080B180FB013180F90111821082FB01A3
:10242000828160E181FD60E288EE0E9403102A2C27
:10243000A301F701608180E00E94EB10582EF6E0C6
:102440008F1310C088EF0E94D710F70192819D7FF3
:1024500084FF9260928360E191FD60E288EE0E94C9
:102460000310E6CF811150C088EC0E94D71082FF84
:102470005FC080E30E94D710482E8A151B0411F01C
:1024800008F0422CF60180819181E501C81BD90B2F
:10249000D7FF02C0D0E0C0E0842C912C8C169D06A2
:1024A0000CF4E40180E591E00E94B8020E94EB0C7C
:1024B00088E00E94D010AE0170E060E0C8010E9488
:1024C0007E2B209721F0BE01C8010E94DE080C0F70
:1024D0001D1F0E94ED0C64E088EC0E940310F601C1
:1024E00080819181880E991E91828082431420F010
:1024F0008A149B0408F49CCF88EF0E94D710F70140
:10250000928184FB91F99283852DDF91CF911F9168
:102510000F91FF90EF90DF90CF90BF90AF909F9082
:102520008F907F906F905F904F903F902F90089585
:1025300080EF582EE9CFAF92BF92CF92DF92EF9209
:10254000FF920F931F93CF93DF9300D000D0CDB7AE
:10255000DEB77C01690158011C821B821A82198234
:102560008E010F5F1F4F9E012D5F3F4F0E944B1149
:10257000811109C049815A816B817C818501960155
:10258000C7010E94F2110F900F900F900F90DF91F2
:10259000CF911F910F91FF90EF90DF90CF90BF9060
:1025A000AF9008953F924F925F926F927F928F9279
:1025B0009F92AF92BF92CF92DF92EF92FF920F93D2
:1025C0001F93CF93DF93CDB7DEB7C254D1090FB6B7
:1025D000F894DEBF0FBECDBFDC0194962C91222370
:1025E00009F4A1C06C010E94D503F601878C90A06C
:1025F000A1A0B2A0681979098A099B0997FD93C027
:102600000E94D503D60193962C91620F711D811DF6
:10261000911DF601678F70A381A392A3312C5E01F7
:10262000F1E4AF0EB11C46018AE5880E911CD6017B
:102630005D968C91381608F076C0E32DF0E0729626
:10264000EE0FFF1FEE0FFF1FEC0DFD1D60806620DB
:1026500009F467C0712C7301EE0CFF1CF701E60D45
:10266000F71DEC0DFD1D86A190E0F501918380839F
:10267000FE0131962F011192EA15FB05E1F7F701F2
:10268000E60DF71DEC0DFD1D8201950145A1D6015A
:1026900016966C91169714968D919C910E949B12A0
:1026A000182F81113EC0F501808191810097C9F1F9
:1026B0008134910520F080E490E091838083E60CE2
:1026C000F71CD601AE0DBF1DF60180819181FC0182
:1026D000608C718C7201F5010081F4012081959666
:1026E0004C91B601C601F3010995D601ED91FC911B
:1026F0000288F389E02DD4018C9181111981612F19
:10270000C6010995009769F0DC01ED91FC910190FB
:10271000F081E02D8201D5012C91D4014C91B601BC
:102720000995339484CF80E0CE5BDF4F0FB6F894E9
:10273000DEBF0FBECDBFDF91CF911F910F91FF90F4
:10274000EF90DF90CF90BF90AF909F908F907F9051
:102750006F905F904F903F9008952F923F924F92CD
:102760005F926F927F928F929F92AF92BF92CF9221
:10277000DF92EF92FF920F931F93CF93DF93CDB72A
:10278000DEB766970FB6F894DEBF0FBECDBF3C0133
:10279000442E322E202EEA8ACE8AEBA4FCA4CDA4AD
:1027A000DEA41E861D86188A1F868E01015F1F4FBC
:1027B0009E01235F3F4F0E944B11582E81113BC158
:1027C00039822A822A892B833E893C83BE82AD824C
:1027D00098868F82AE014F5F5F4F68E080E20E9473
:1027E000DB0F4F855889642D80E10E94EB10811129
:1027F00040C1C114D10409F453C00D851E85D80110
:1028000012968C91129737FE51C0826012968C936B
:10281000540122242394A114B10409F42FC1FC868D
:10282000EB864F8558896D857E8586019E01255FE3
:102830003F4FC3010E94F211582EB6E08B130EC019
:1028400088EF0E94D710ED85FE8585FB882780F9EB
:102850008225928180FB91F99283DDCF8111EBC0BB
:10286000EFA5F8A93097A1F06B857C850190F081E8
:10287000E02D0190F081E02DC4018A199B099A870F
:1028800089879E01275F3F4FA6018FA598A90995CB
:102890008B859C85A81AB90A8E159F0508F0BBCFB9
:1028A0004F85588937FEE1C080EAE0C0816012960A
:1028B0008C93129711968C908FEF880D803408F0CE
:1028C000DAC02F8438880E94D5039B01AC012857B9
:1028D0003C4E4F4F5F4F2A8B3B8B4C8B5D8BD8010F
:1028E00012968C9160E880FF60E488EE0E940310ED
:1028F000512C912CE114F10409F48CC03401E8143A
:10290000F90408F437016E8AA601662D80E10E9461
:10291000DB0F662D88E30E940310F801608160627E
:1029200080EF0E94031088EC0E94D71087FFFBCF36
:1029300060E888EC0E94031088EF0E94D7108F7027
:10294000582E198AB12CA12C552021F10E94D503B3
:102950002A893B894C895D89621B730B840B950B1B
:1029600097FF18C036E0531609F440C04EE05416E5
:10297000B1F054E0551209C08FEFA81AB80A21141B
:10298000310491F02A143B0479F460E088E30E945A
:10299000031042C0E618F708C60CD71CABCF9989C4
:1029A0009F5F998B933089F360E088E30E94031066
:1029B000D6016C9180E10E9403106E8988E30E9429
:1029C0000310F8016081606280EF0E94031088ECC0
:1029D0000E94D71087FFFBCF60E888EC0E940310AD
:1029E00088EF0E94D7108F70582EAECF88EF0E94CC
:1029F000D71085FB882780F9A1E08A27F80192810A
:102A000080FB90F9928360E890FF60E488EE0E947A
:102A10000310CACF5110B9CF88EF0E94D710D80148
:102A200012969C91129785FB90F912969C934F8574
:102A300058895520D1F0852D66960FB6F894DEBFE3
:102A40000FBECDBFDF91CF911F910F91FF90EF90FF
:102A5000DF90CF90BF90AF909F908F907F906F90BE
:102A60005F904F903F902F90089580E8642D0E94D2
:102A7000EB10582EE0CF8AED582EDDCF4F855889C8
:102A8000552009F411CFD7CF8F929F92AF92BF926A
:102A9000CF92EF920F931F931F921F921F930F934A
:102AA0005F934F934A01B12CA12C32E0C32EE22E4A
:102AB00006E020E840E00E94AD130F900F900F90C9
:102AC0000F900F900F901F910F91EF90CF90BF90AC
:102AD000AF909F908F9008958F929F92AF92BF92E8
:102AE000CF92EF920F931F921F923F932F935F937A
:102AF0004F934A01B12CA12CCC24C394E12C06E0C5
:102B000020E840E00E94AD130F900F900F900F90BF
:102B10000F900F900F91EF90CF90BF90AF909F903C
:102B20008F9008958F929F92AF92BF92CF92EF9223
:102B30000F93CF931F921F921F921F921F921F926B
:102B4000912C812CB12CA12CC12CE62E05E020E08B
:102B500040E060E00E94AD13C82F6CE271E080E0BD
:102B600090E00E94A3030F900F900F900F900F9092
:102B70000F908C2FCF910F91EF90CF90BF90AF908F
:102B80009F908F9008952F923F924F925F926F92F5
:102B90007F928F929F92AF92BF92CF92DF92EF92ED
:102BA000FF920F931F93CF93DF93CDB7DEB7689754
:102BB0000FB6F894DEBF0FBECDBF1B8A38E03C8B4A
:102BC0003CE33D8B8A3F3FEF9307D9F416ED812F0D
:102BD00068960FB6F894DEBF0FBECDBFDF91CF91E0
:102BE0001F910F91FF90EF90DF90CF90BF90AF902B
:102BF0009F908F907F906F905F904F903F902F901D
:102C00000895222E642E362E7C01DC0116960D913D
:102C10001C911797CE01439617969C938E93169707
:102C20001A962C939E012F5F3F4F42E150E060E0E7
:102C3000C7010E946C15782EF70117830683182FA1
:102C40008111C5CF49845A848B849C84FD81FF8B7C
:102C50003E81388F670186E5C80ED11C56011E8A59
:102C6000D5018D919D915D010097D1F5BE89BF5F22
:102C7000BE8BB031A9F7F601819191916F01009758
:102C800009F06EC07394F0E17F12F5CFF7018681F1
:102C9000978117ED892B09F49ACF2286262D40E0E3
:102CA000632DC7010E941A09082F14ED882309F427
:102CB0008ECF682FC7010E946F09009709F486CF55
:102CC000DC0114962C92602FC7010E949215182FD8
:102CD000882309F47CCF602FC7010E94F80877CFC2
:102CE000DC01ED91FC910084F185E02D09958111C5
:102CF000BDCFF501929182918F01DC01ED91FC91A4
:102D00000088F189E02D688D0995882309F4AECFFC
:102D1000F80180819181DC01ED91FC910484F585BD
:102D2000E02DA401B2010995882361F0022D262D22
:102D3000432D6E89C7010E942410182F813D09F48C
:102D400095CF45CFF80180819181DC01ED91FC9117
:102D50000684F785E02D6F8909958111E7CF86CF2D
:102D6000DC01ED91FC910084F185E02D0995811144
:102D700089CFF601929182918F01DC01ED91FC9156
:102D80000088F189E02D688D099581110DC0022D13
:102D9000262D432D672DC7010E942410182F877FF1
:102DA000813D09F014CF6ECFF80180819181DC0163
:102DB000ED91FC910484F585E02DA401B201099503
:102DC000811160CFF80180819181DC01ED91FC914E
:102DD0000684F785E02D6F8909958823C1F252CFCB
:102DE0008F929F92AF92BF92CF92EF920F93A42EA9
:102DF000B12C1F921F921F921F921F921F92912C13
:102E0000812CC12CE62E01E023E240E0FC0162852A
:102E1000828193810E94AD130F900F900F900F90BD
:102E20000F900F900F91EF90CF90BF90AF909F9029
:102E30008F9008958F929F92AF92BF92CF92EF9210
:102E40000F93A62EB12C1F921F925F934F931F9248
:102E500024E02F9324E0822E912CC12CE12C00E061
:102E600023EA40E0FC016285828193810E94AD13D8
:102E70000F900F900F900F900F900F900F91EF9079
:102E8000CF90BF90AF909F908F9008958F929F9218
:102E9000AF92BF92CF92EF920F93A42EB12C1F92BC
:102EA0001F921F921F921F921F92912C812CC12C56
:102EB000E62E03E023E240E0FC01628582819381FB
:102EC0000E94AD130F900F900F900F900F900F90E6
:102ED0000F91EF90CF90BF90AF909F908F900895FB
:102EE000CF92DF92EF92FF921F93CF93DF93EC018B
:102EF000162F7A01FA0180819181A281B3818130FC
:102F0000F3E09F07F1E0AF07B105C9F170F4811557
:102F1000E1E09E07AE07B10509F450C08130914051
:102F2000A140B10561F180E041C0833021E092070A
:102F300020E1A207B10529F083309340A041B105FB
:102F400091F7412F64E1CE010E94F016412F60E11C
:102F5000CE010E94F01664E170E080E090E00E94F3
:102F6000A3036A85F7012181269521706770412F9F
:102F70008A819B810E94C31510926402D4CF8091F4
:102F800064028111D0CF412F61E1CE010E94F01681
:102F9000412F60E1CE010E94F016412F64E0CE0186
:102FA0000E94461781E08093640281EBDF91CF910C
:102FB0001F91FF90EF90DF90CF900895462F61E131
:102FC000CE010E94F016412F60E1CE010E94F01662
:102FD000109264028A8587701770880F880F880F97
:102FE000182B09F4A0CFEA80FB806701F6E5CF0E2D
:102FF000D11CD0E0C0E0D6018D919D916D0100976C
:10300000C1F0DC01ED91FC910084F185E02D099582
:1030100018130FC0AB96CC0FDD1FCE0DDF1D8881BE
:103020009981DC01ED91FC910480F581E02D0995F9
:103030007ACF2196C031D105F1F675CFCF92DF92CC
:10304000EF92FF920F931F93CF93DF93CDB7DEB72D
:103050002E970FB6F894DEBF0FBECDBFFC012089BE
:10306000211111C010E0812F2E960FB6F894DEBF0B
:103070000FBECDBFDF91CF911F910F91FF90EF90C9
:10308000DF90CF9008957C010E94D503F70104855D
:10309000158526853785601B710B820B930B97FD79
:1030A000E1CF81E090E09E878D878E010F5F1F4FFB
:1030B0009E01235F3F4F41E06285828193810E94A0
:1030C0009B12182F811121C082E0D82E01E0898146
:1030D0008D2139F119861A861B861C86AE01475F41
:1030E0005F4F602FC7010E941A17C82E811119C0A7
:1030F000AE01475F5F4F602FC7010E947017813B91
:1031000019F0882371F0C82E1C2D0E94D5036C592C
:103110007F4F8F4F9F4FF70164877587868797870B
:10312000A2CFDD0C0F5F083091F601E0F701838537
:10313000801758F319861A861B861C86AE01475FD6
:103140005F4F602FC7010E941A17D82E811117C038
:1031500089859A85877091708130914081F48B8543
:103160009C8581609C878B87AE01475F5F4F602F96
:10317000C7010E947017813B29F0811102C00F5FC7
:10318000D5CFD82E1D2DC1CFCF92DF92FF920F93B6
:103190001F93CF93DF9300D000D0CDB7DEB78C0163
:1031A000F62E19821A821B821C82462F61E10E9430
:1031B000F0164F2D60E1C8010E94F0164F2D64E01B
:1031C000C8010E94461783E0C82ED12CAE014F5F84
:1031D0005F4F6F2DC8010E941A17811114C0898199
:1031E0009A81AB81BC819D7F83309140A041B10524
:1031F00051F064E670E080E090E00E94A30381E07B
:10320000C81AD10819F74F2D64E1C8010E94F016C1
:103210004F2D60E1C8010E94F01664E170E080E08B
:1032200090E00E94A3030F900F900F900F90DF91FA
:10323000CF911F910F91FF90DF90CF9008952F9223
:103240003F924F925F926F927F928F929F92AF9236
:10325000BF92CF92DF92EF92FF920F931F93CF9383
:10326000DF93CDB7DEB7E8970FB6F894DEBF0FBE99
:10327000CDBFDC011A963C9131112BC1922E242E28
:10328000362E3C01FC01E280F380D701ED91FC91E8
:103290000190F081E02D60E0C70109958C01009755
:1032A00009F41AC1FC01C080D180C114D10409F411
:1032B00016C15301F4E0AF0EB11CDC011196BC92B3
:1032C000AE9214969C92FE0131962F019F0148E028
:1032D00050E060E0D30112968D919C910E946C1594
:1032E000982EF8011482811100C18D8191ED992EE3
:1032F000893059F58980D701ED91FC910280F381E5
:10330000E02D222D41E0632DC7010995F30182874D
:10331000882309F4E7C098859583682F828193817B
:103320000E949215982ED801CD92DC92882339F113
:10333000D701ED91FC910480F581E02DD3011A961F
:103340006C91C7010995F3011286892DE8960FB695
:10335000F894DEBF0FBECDBFDF91CF911F910F91CB
:10336000FF90EF90DF90CF90BF90AF909F908F90A5
:103370007F906F905F904F903F902F9008958110B5
:1033800088C0950142E0F3016285828193810E94A9
:103390008609982E8111D9CF1F921F925F924F926A
:1033A0001F9288E08F9358E0852E912CB12CA12C90
:1033B00069E2C62EE12C06E020EA40E0F3016285D6
:1033C000828193810E94AD13982E0F900F900F90E1
:1033D0000F900F900F908111B8CF8B81D3011B9666
:1033E0008C931B97820120E048E050E01A966C9184
:1033F0001A9712968D919C910E944415982E8111D6
:10340000A4CF4B815C8120E0F301628582819381AE
:103410000E944415982E811198CF498150E08E0169
:103420000F5D1F4F20E0D3011A966C911A971296E8
:103430008D919C910E944415982E811186CF1F92E8
:103440001F921F921F921F921F92912C812CC12CB0
:10345000EE8009E020E040E0F30162858281938103
:103460000E94AD13982E0F900F900F900F900F9019
:103470000F9081116ACF11E0D3011B968C911B979D
:103480008117D0F0412F68E0C3010E9446171F5FEB
:10349000F3CF482D413208F040E250E09201D301D1
:1034A0001A966C911A9712968D919C910E946C15A8
:1034B000982E81114ACF65CF1296ED91FC9113970A
:1034C000EA58FF4F80818460808381E050968C931E
:1034D0003CCF49ED942E39CF36ED932E36CF27EDE4
:1034E000922E33CF84ED982E30CFD182C0822DCF53
:1034F0002F923F924F925F926F927F928F929F9204
:10350000AF92BF92CF92DF92EF92FF920F931F93F1
:10351000CF93DF93CDB7DEB7C258D1090FB6F89479
:10352000DEBF0FBECDBFDC0116963C9119ED311107
:1035300014C0B22E942EA62E3C01FC01C480D5806E
:10354000D601ED91FC910190F081E02D60E0C60183
:1035500009952C010097E1F416ED812FCE57DF4F2E
:103560000FB6F894DEBF0FBECDBFDF91CF911F9194
:103570000F91FF90EF90DF90CF90BF90AF909F9012
:103580008F907F906F905F904F903F902F90089515
:10359000FC01008111810115110509F4A3C113017A
:1035A000F5E22F0E311CDC0111963C922E921496FE
:1035B000BC929E0126593F4F48E050E060E0F30185
:1035C000848195810E946C15F82E81118DC1AB9676
:1035D000FFACAB97D2010D931C93D601ED91FC91FA
:1035E0000280F381E02D292D40E06A2DC601099566
:1035F000F301868314ED882309F4AFCFE2969FADE3
:10360000E29796A3682F848195810E949215182FC6
:10361000D601ED91FC91D20114961C92882359F0A9
:103620000480F581E02DD30116966C91C6010995B1
:10363000F301168292CF0190F081E02DD30116960E
:103640006C91C6010995009709F486CFFC01B482FC
:10365000F110A8C0E4968EAD9FADE497F301E35A54
:10366000FF4F91838083E6968EAD9FADE6973297AC
:1036700091838083EC96FFADEC97C058DF4FF883C1
:10368000C058D040910141E0D30116966C91169735
:1036900014968D919C910E948609F82E811197C0F5
:1036A0002E01B1E44B0E511CF3013296CF57DF4F80
:1036B000F983E883C158D040C2014096EE969FAF8F
:1036C0008EAFEE97C058DF4FB881C058D040FB1680
:1036D00009F489C082E291E0F20191838083CF579F
:1036E000DF4FA881B981C158D040B383A28314822F
:1036F0001186128615861786168610A211A212A2AE
:1037000010A6EE968EAD9FADEE979683858390873B
:10371000878394878387D30114960D90BC91A02D45
:10372000C258DF4FB983A883CE57D040F301D6806B
:103730008E010F5F1F4F2F2D49E050E06D2DCD0101
:103740000E94441581114DC08B809C805F924F92E6
:103750001F930F93C401A1E48A16910410F080E432
:1037600090E09F938F93B12CA12C32E0C32EEF2CCD
:1037700006E020E840E06D2DC258DF4F8881998136
:10378000CE57D0400E94AD130F900F900F900F9026
:103790000F900F90811125C0F301868D823018F5AE
:1037A000F39490CF4F2D433108F042E150E09E0159
:1037B00026593F4FD30116966C91169714968D910A
:1037C0009C910E946C15F82E882309F443CFD301F5
:1037D000ED91FC910480F581E02DC30109951F2D29
:1037E000BCCEF82EF4CFD3015E964C915E9711EDCE
:1037F000423008F4B2CE910116966C911697149649
:103800008D919C910E9486091F921F921F921F9278
:103810001F921F92912C812CB12CA12CC12CF30151
:10382000E48C09E020E040E06681848195810E947B
:10383000AD13182F0F900F900F900F900F900F90C7
:1038400081114EC0D12CD3015D968C915D97D81615
:10385000E0F58D2D90E0FC017296EE0FFF1FEE0F4C
:10386000FF1FE60DF71D2081211102C0D394EBCF7D
:10387000FC01EE0FFF1FEE0FFF1FE60DF71DEA5BC9
:10388000FF4F80818770A82EB12C1F921F921F922C
:103890001F921F921F92912C812CC12CE12C0AE0C7
:1038A00021E240E0F3016681848195810E94AD139D
:1038B000F82E0F900F900F900F900F900F9088237D
:1038C000A9F2F5E08F1791F282CFED91FC91068875
:1038D000F789E02DC301099581E0F30184A33DCE72
:1038E000F82E75CF17ED39CEF201118300836FCF1B
:1038F0006F927F928F929F92AF92BF92CF92EF92F0
:10390000FF920F931F93CF93DF93CDB7DEB7C254CF
:10391000D1090FB6F894DEBF0FBECDBF182FE62E2B
:103920005A0162E285E793E00E94F005EE2009F477
:1039300049C01F921F92CE0101963C019F938F9325
:103940001F9282E48F9392E4892E912C23E0C22E61
:1039500006E020E840E0612F85E894E00E94AD1386
:103960000F900F900F900F900F900F9081112AC021
:103970000981033408F002E482E0F82E10E08F2D74
:1039800090E09C012F5F3F4F20173107DCF4260D9C
:10399000371DF9012081211111C0860D971DFC01F1
:1039A000608180EE860F8F3548F4623249F085E7FA
:1039B00093E00E94F005F394F394E1CF6FE3F7CF27
:1039C00067E2F5CF62E285E793E00E94F005CE5B07
:1039D000DF4F0FB6F894DEBF0FBECDBFDF91CF91A2
:1039E0001F910F91FF90EF90CF90BF90AF909F905D
:1039F0008F907F906F9008958F929F92AF92BF9219
:103A00000F931F93CF93DF93CDB7DEB7A1970FB678
:103A1000F894DEBF0FBECDBF19A2423008F44AE0D1
:103A20008E010F5D1F4F842E912CB12CA12CA5016E
:103A300094010E94512BE62FB901CA01EA3044F5E6
:103A4000E05DD801EE938D01232B242B252B79F7F4
:103A500090E080E0109769F0FD0101900020E9F707
:103A60003197AF014A1B5B0BBD0185E793E00E94D4
:103A7000DA05A1960FB6F894DEBF0FBECDBFDF9179
:103A8000CF911F910F91BF90AF909F908F9008950D
:103A9000E95CD7CFCF92DF92EF92FF92CF93DF9383
:103AA0006B017C016DE285E793E00E94F005EC017B
:103AB00066277727CB016C197D098E099F094AE09B
:103AC0000E94FC1C8C0F9D1FDF91CF91FF90EF9007
:103AD000DF90CF9008959C01BC01990F880B990B42
:103AE00037FD0C944A1D4AE00C94FC1CDF92EF92C7
:103AF000FF920F931F93CF93DF93D42EE701809112
:103B00008602882389F181EB90E00E9406066D2DE4
:103B100070E090E080E04AE00E94FC1C8CEA90E0BB
:103B20000E940606602F70E090E080E04AE00E946C
:103B3000FC1C6AE385E793E00E94F00510E0101793
:103B400071F0143161F060E285E793E00E94F005C6
:103B5000F70181917F010E94EE0D1F5FF0CF6AE0B7
:103B600085E793E00E94F005F1E0DF120DC0083018
:103B700051F560E0CE01DF91CF911F910F91FF9041
:103B8000EF90DF900C94570E82E0D8121CC00330E7
:103B9000D1F488818230B9F40980DA81C02D809116
:103BA000620290916302C817D90769F0009711F07B
:103BB0000E94D50C209719F0CE010E94B80CD0932A
:103BC0006302C0936202DF91CF911F910F91FF902A
:103BD000EF90DF90089542E050E069EF71E085E7F3
:103BE00093E00C94DA05CF93DF930E940606EC0174
:103BF0000E94EB1D8C0F9D1FDF91CF9108950E94B5
:103C0000792B1F920F920FB60F9211242F933F938F
:103C10008F939F93AF93BF9380916A0390916B03AF
:103C2000A0916C03B0916D033091690323E0230FE1
:103C30002D3758F50196A11DB11D2093690380937E
:103C40006A0390936B03A0936C03B0936D03809110
:103C50006E0390916F03A0917003B0917103019670
:103C6000A11DB11D80936E0390936F03A093700309
:103C7000B0937103BF91AF919F918F913F912F911D
:103C80000F900FBE0F901F90189526E8230F0296F5
:103C9000A11DB11DD2CF1F920F920FB60F9211240A
:103CA0008F939F938091E1009091E100937F909397
:103CB000E10083FF0FC01092E90091E09093EB00C8
:103CC0001092EC0092E39093ED001092730398E051
:103CD0009093F00082FF22C093E09093E9009091CE
:103CE000F200992319F09AE39093E80090917602FC
:103CF000992341F090917602915090937602911120
:103D000001C05D9A90917203992341F090917203E2
:103D1000915090937203911101C0289A84FF18C0AA
:103D20008091E2008E7E81608093E2008091E100CC
:103D30008F7E8093E100809177028E7E80618093F8
:103D400077029F918F910F900FBE0F901F90189543
:103D500080FFF7CF8091E2008E7E80618093E20049
:103D60008091E1008E7E8093E100809177028E7ECB
:103D70008160E5CF1F920F920FB60F921124CF9260
:103D8000DF92EF92FF920F931F932F933F934F93E6
:103D90005F936F937F938F939F93AF93BF93EF93B3
:103DA000FF93CF93DF93CDB7DEB76C97DEBFCDBF68
:103DB0001092E9008091E80083FF25C068E0CE0101
:103DC00045960E94E00482EF8093E8008D8987FF8A
:103DD00039C09091E80090FFFCCF982F907609F0C1
:103DE00034C19E894F89588D2F89F88C911131C02B
:103DF000803861F5809178028093F1001092F10093
:103E00008EEF8093E8006C960FB6F894DEBF0FBE7D
:103E1000CDBFDF91CF91FF91EF91BF91AF919F9176
:103E20008F917F916F915F914F913F912F911F9152
:103E30000F91FF90EF90DF90CF900F900FBE0F90FB
:103E40001F9018959EEF9093E800C7CF1092F10055
:103E5000D5CF913059F48111D3CF4130510581F63E
:103E6000809178028D7F80937802CACF933049F495
:103E70008111C6CF4130510519F6809178028260D8
:103E8000F2CF953041F48091E80080FFFCCF2068AC
:103E90002093E300B5CF963009F0A9C00B8D1C8D9F
:103EA00022E01092E9001092740210927302F21252
:103EB0002EC010927202109271020E9461051F8240
:103EC00099E09983FA8291E09E8390EA98879AEF2D
:103ED00099872091730230917402275F3F4F3C8392
:103EE0002B838D831092E90010927402109273025A
:103EF000109372020093710249E050E0BE016F5FBF
:103F00007F4F80E00E940F040E94610579CF1093DB
:103F10007202009371020E944D05DC0112960D9110
:103F20001C910115110509F44BC1D801ED91FC91CB
:103F30000480F581E02DBE016B5E7F4FC8010995BD
:103F4000009709F038C1F80100851185EACFF3E048
:103F5000FF120EC08F89882309F440C0823061F4BB
:103F600040E860E18DE593E00E94E620811148CFB2
:103F700081E28093EB0047CF813029F440E86BE089
:103F800081E593E0F1CF833099F70E944D05DC0184
:103F90001296ED90FC908E010F5F1F4F6801E114A7
:103FA000F10479F0D701ED91FC910680F781E02DC5
:103FB000B801C7010995080F111DF701E084F184CC
:103FC000EECFD8011C92F60101900020E9F731975D
:103FD000BF016C197D0940E0C601C6CF6BE373E0F9
:103FE000FB01449150E080E80E940F0409CF973014
:103FF00009F4BECF983021F481E08093F10000CF26
:10400000993009F0FDCE837009F0B2CFE1E0F1E024
:1040100081E031E096E32191222371F08093E90061
:104020003093EB00DF0111972C912093EC009093DB
:10403000ED008F5F873079F78EE78093EA0010926A
:10404000EA008F8980937303DBCE8B8D9C8D109259
:10405000E90010927402109273029093720280939E
:104060007102898D81118CC08E899D89913A49F4A4
:10407000813209F07DCF47E050E06BE071E080E0F5
:10408000B3CF913209F074CF833269F48F89988D60
:10409000B0E0A0E08093070190930801A09309018C
:1040A000B0930A01ADCE803239F467E070E08BE066
:1040B00091E00E94ED04A4CE823209F0A1CE8F8956
:1040C00080931201EEEFFFE7859194918B3F9C4D19
:1040D00051F1E0E0F8E080910B0190910C01A0918A
:1040E0000D01B0910E01803B9440A105B105F1F4A2
:1040F0008091120180FD1AC0EE3F8AE0F80789F531
:1041000087E797E7918380838091600080937502B1
:1041100088E19BE00FB6F894A895809360000FBEED
:10412000909360006DCEEEEFFAE0D5CF8081918163
:104130008737974709F064CEA89580916000886121
:10414000809360008091750280936000EE3F2AE0CA
:10415000F20789F08091FE0A9091FF0A9183808393
:104160004FCE808191818737980751F29093FF0A53
:104170008093FE0AC5CF1092FF0A1092FE0A40CE2D
:104180000E944D05DC0112960D911C91011511053F
:1041900009F4EECED801ED91FC910190F081E02D73
:1041A000BE016B5E7F4FC8010995811129CEF801D0
:1041B00000851185EBCF181619060CF421CED8CE48
:1041C000F1E0FF12C4CE6FE373E00ACFEF92FF92EB
:1041D0000F931F93CF93DF93F82E192FE62E042F02
:1041E00081E0860F880F0E94E10383E00E94E103D3
:1041F000CF2DD12FEC0EFD2EF11CCE15DF05B9F021
:1042000007FF13C0FE0184910E94E103182F80E094
:104210000E94E103812321968111EFCFDF91CF919D
:104220001F910F91FF90EF9008958881EDCF81E06D
:10423000F5CF6F927F928F929F92AF92BF92CF9263
:10424000DF92EF92FF920F931F93CF93DF93EC01D6
:10425000842F6C8F4D8D70E060E0A82EB12C822EE3
:10426000912C602E712C641770F56530710559F131
:10427000DB01AA0FBB1FAA0FBB1FFE01EA0FFB1F2A
:10428000EA5BFF4F9081392F37703A151B0409F014
:1042900087C0392F369536953695377038151904FD
:1042A00009F07EC092959695969593709615170491
:1042B00009F076C06E0196E4C90ED11CCA0EDB1E51
:1042C000C114D104F9F4453008F05BC0A4E04A9F62
:1042D000A00111246E01B6E4CB0ED11CC40ED51E74
:1042E0002770220F220F220F982F9770292B902FC3
:1042F0009295990F990F907C292BF60120839D8D23
:104300009F5F9D8FD70113969C911397937010E038
:10431000933029F412969C9112E097FD11E0402F02
:10432000682FE881F981068CF78DE02DCE01099583
:10433000882339F1112329F18E8D8B3010F5282F28
:1043400030E0F901EE0FFF1FE20FF31FEC0FFD1F2E
:10435000D70112969C9112979F7095A314969C91E9
:10436000149796A394E097A3C10ED11CF601818304
:1043700016968C919BA1981708F48BA38E8D8F5F56
:104380008E8FDF91CF911F910F91FF90EF90DF9073
:10439000CF90BF90AF909F908F907F906F90089537
:1043A0006F5F7F4F60CFEF92FF920F9302970E9453
:1043B00019210F91FF90EF900895BC01625F7F4F2C
:1043C000FC01838148E050E080640C9446040A9725
:1043D0000C94DD21CF93DF93109278031092770332
:1043E00088EE93E0A0E0B0E08093790390937A03A5
:1043F000A0937B03B0937C0384E391E090937603D6
:10440000809375038FEF9FEF9093820380938103D6
:10441000C1E0C093C903C093CA038BED93E09093AE
:10442000CC038093CB031092CE031092CD03109255
:10443000D2031092D10386E491E09093C603809357
:10444000C50384E591E09093D0038093CF03C0939C
:10445000DC03C093DD031092DE031092E0031092A0
:10446000DF031092E2031092E10381EC8093DB03FF
:104470000E944D0565EC73E00E94920582E791E091
:1044800090930B0480930A0480910204811112C05E
:104490001092FD031092FC0380E095E09093FF03DF
:1044A0008093FE0389E190E09093010480930004DF
:1044B000C09302048091F40381112CC0C1E0C09329
:1044C000E703C093E8038DEE93E09093EA038093B3
:1044D000E9031092EC031092EB0386E691E09093CF
:1044E000E4038093E3031092EF031092EE03109223
:1044F000F1031092F003C093F203C093F30381EC35
:104500008093ED030E944D0563EE73E00E949205D7
:10451000C093F403E091EE03F091EF03309709F0BC
:1045200030C18CEF93E09093EF038093EE03809182
:10453000F0039091F1032091000430910104820F67
:10454000931F9093F1038093F00382EE91E0909398
:1045500086048093850410928D0481E080938E04FC
:1045600010928F0487E894E090938C0480938B04DE
:104570001092870488E0809388048CE380938904F8
:1045800010928A04E5E8F4E091E027E834E015862B
:104590009687178634872387359684E0E03DF807B1
:1045A000B1F71092FB0481E1809314042CEC31E00C
:1045B000309375042093740425E834E03093770435
:1045C00020937604109284041092780488E08093FB
:1045D00079042CE320937A0490937B0480937C04E9
:1045E00084E080937D0410927E0410927F041092E8
:1045F0008004109281041092820410928304ABED27
:10460000B4E0FD0190E080E021913191232B09F08D
:10461000C1C0880F991FFC01E552FB4F84E794E06D
:104620009183808385E894E090931A048093190421
:1046300088E791E090931604809315048CE991E04B
:104640009093180480931704109234041092350448
:1046500010923604109237041092380410923904E4
:1046600010926F0410921C0410921E0410921D04EC
:1046700010921F0410922104109220041092220420
:1046800010922404109223041092250410922704FF
:10469000109226041092280410922A0410922904E1
:1046A00010922B0410922D0410922C0410922E04C0
:1046B0001092300410922F04ECE5F4E090E080E0DA
:1046C000EC01CC0FDD1FCC0FDD1FC55ADB4F28815D
:1046D00028732883108211820196349685309105C3
:1046E00079F7C5E1D4E090E080E01DA2582F28E0E2
:1046F000811120E02EA3BC01660F771F9B01280FBC
:10470000391F245C3B4FF90140814E7F4D7F408330
:104710003FE0511131E0FB01E80FF91FE45CFB4F72
:10472000330F330F20812370232B20830196239690
:104730008B309105D1F681E08093330410923204DE
:104740001092310490E080E02D913D91232B41F5B2
:10475000880F991FFC01E552FB4F85E194E091839E
:10476000808382EA91E0909316048093150486EC8E
:1047700091E09093180480931704DF91CF910895EE
:10478000FC01808191810097D9F78CEF93E09183B0
:104790008083CDCE01968031910509F035CF42CF8F
:1047A00001968031910581F6DCCFCF93DF93CDB7B1
:1047B000DEB7CF55D1090FB6F894DEBF0FBECDBF1F
:1047C000789484B5826084BD84B5816084BD85B5EC
:1047D000826085BD85B5816085BD80916E008160F8
:1047E00080936E001092810080918100826080939E
:1047F00081008091810081608093810080918000A0
:10480000816080938000809191008260809391000C
:1048100080919100816080939100809190008160EF
:10482000809390008091C10084608093C10080914A
:10483000C10082608093C1008091C100816080933B
:10484000C1008091C30081608093C3008091C0004B
:1048500082608093C0008091C20081608093C2001A
:1048600080917A00846080937A0080917A008260DF
:1048700080937A0080917A00816080937A008091A1
:104880007A00806880937A00109273031092780205
:10489000109277028091D70081608093D70080EAE0
:1048A0008093D80089B5806189BD89B5826089BD52
:1048B00009B400FEFDCF61E070E080E090E00E946E
:1048C000A3038091D8008F7C80618093D800809171
:1048D000E000807F8093E0008091E1008E7E8093F5
:1048E000E1008DE08093E200559A209A0E94BB027D
:1048F0008FEF9FEF90938203809381038FEC93E07F
:104900000E94E3118FEC93E00E94E721ECE0F4E0D9
:1049100088E0DF011D928A95E9F748E050E0BF0189
:104920008AE094E00E945F0C269A0E94ED0C1FB76B
:10493000F89480917902811124C0E3EDF4E0849130
:10494000E2EFF4E09491E82FF0E0EE0FFF1FEC545B
:10495000FB4FA591B491EC91E92321F461E081E151
:104960000E94500381E10E94BB028CB580618CBD26
:104970008CB580648CBD8FE00E94BB0280E10E94F8
:10498000BB02809179028F5F809379021FBF209ACA
:10499000289A259868E188E80E94031060E288E779
:1049A0000E94031060E088E70E94031010E000E01E
:1049B00088E60E94D7100F5F1F4F80FF5DC061EC3B
:1049C00088ED0E94031060E680ED0E94031064E011
:1049D00088EE0E94031088EE0E94D71082FFFBCF62
:1049E0000E94B31160E288EC0E94031061E080E84D
:1049F0000E9403100E94C2100E94D50360936503B9
:104A00007093660380936703909368031E01E7E544
:104A10002E0E311C9E01235B3F4F6C963FAF2EAF95
:104A20006C97412C512C320143949E012F5D3F4FD6
:104A30006A963FAF2EAF6A9783B1182F107285FD2B
:104A40000CC088EC0E94D71085FF03C00E94B311F0
:104A500010E2612F88EC0E94031080917403813072
:104A600009F496C008F498C0823009F43CC0833041
:104A700009F49AC0B12C4EC00F3F100709F098CF2F
:104A800004E914E02EEEE22E24E0F22E3FECC32ED9
:104A900034E0D32EF8018491F701B490F6017490BC
:104AA00070E060E0772099F081110E940403E72D07
:104AB000F0E0EE0FFF1FE259FC4FA591B4918C91ED
:104AC000B82291E080E009F490E0692F782FF1E0BE
:104AD0006F278DE00E94500366E970E080E090E06F
:104AE0000E94A303D7CFB12C80911404807F803122
:104AF00089F40E94D50368537F4F8F4F9F4F609377
:104B00007A0270937B0280937C0290937D0280E214
:104B100080931404ABEDEA2EA4E0FA2EBBEFCB2E6B
:104B2000B4E0DB2E8701D8018D919D918D01009716
:104B300039F0DC01ED91FC910680F781E02D0995BB
:104B4000C016D10681F780911404803409F415C190
:104B500070F5803209F4FBC0803309F408C181315B
:104B600009F043C01092FB04F701819191917F01FC
:104B7000009739F0DC01ED91FC910480F581E02D86
:104B800009950E151F0581F782E1809314042DC04D
:104B900083E1809314046ECF80911404807F803170
:104BA00009F468CF81E1F5CFBB24B3949DCF813563
:104BB00009F4F2C0803809F402C18035B1F488EC00
:104BC0000E94D71086FF20C581E5809314040E94BF
:104BD000D5036C5E7F4F8F4F9F4F60937A02709327
:104BE0007B0280937C0290937D0280911404803933
:104BF00009F00FC50E94D5036093650370936603A7
:104C0000809367039093680311E080916403811798
:104C100051F01093640383E894E0111102C08FE710
:104C200094E00E94F31D109139048091DE03F1019C
:104C300080830E94D503C0906003D0906103E09010
:104C40006203F09063036C157D058E059F0520F4CB
:104C500080911401D1018C93112371F1F1019081A4
:104C600080911301981304C080915F03811124C0C7
:104C70001F921F923F922F921F9281E08F93882460
:104C80008394912CB12CA12CF2E0CF2EE12C09E0E1
:104C900021E240E060911B048091190490911A0474
:104CA0000E94AD13D1018C91809313010F900F904E
:104CB0000F900F900F900F9010935F03111103C08E
:104CC0008FEF80931301FE01F5966E96FFAFEEAF66
:104CD0006E979E012D5C3F4FA0963FAF2EAFA097E1
:104CE00085E793E00E947306892B09F455C485E794
:104CF00093E00E9431068A3009F03DC480915E0342
:104D0000E82FF0E0E254FD4F10828823E9F08EEBAB
:104D100092E067969FAF8EAF67976CEF71E00E944D
:104D2000852B892B09F05BC00E94D50361157105A5
:104D30008105910509F016C44092B4025092B50263
:104D40006092B6027092B70210925E03C9CF0E94C1
:104D5000D50300917A0210917B0220917C02309160
:104D60007D02601B710B820B930B97FD4DC461E0BC
:104D700088EE0E94031080E408CF88EE0E94D710CE
:104D800080FD42C488ED0E94D710682F686088EDCE
:104D90000E94031080E5F9CE0E94D50300917A02AB
:104DA00010917B0220917C0230917D02601B710B7F
:104DB000820B930B97FD28C480E8809314042B2D5D
:104DC00040E060E085E894E00E94C315882329F064
:104DD000823D09F40ACF80EAD8CE80E9D6CE6FEFC3
:104DE00071E08EEB92E00E94852B892B29F482E7FB
:104DF00094E00E94F31DA8CF63E072E08EEB92E096
:104E00000E94852B892B19F48DE694E0F2CF45E0C2
:104E100050E068E072E08EEB92E00E948E2B892BCE
:104E2000D9F5E3ECF2E06796FFAFEEAF679701903C
:104E30000020E9F7E45CF24084E694E0E034F10518
:104E4000C0F20EEB12E074E9E72E72E0F72ED80103
:104E500015968C910E94EF0CD82EF80186810E9445
:104E6000EF0CF0E1DF9E90011124822BD7018D938E
:104E70007D010E5F1F4FB2E00E3F1B0741F70E94FE
:104E8000D5036093B4027093B5028093B6029093F9
:104E9000B70281E694E0ADCF44E050E06EE072E00E
:104EA0008EEB92E00E948E2B892B91F582EC92E0A2
:104EB00067969FAF8EAF6797CE018B5A9F4F0E9428
:104EC000030D182FCE018B5A9F4F0E94030D109394
:104ED000850280937F0291E0811101C090E0909360
:104EE0007E020E94760D67E070E080E090E00E9414
:104EF000A3031092850210927E020E94760D65E057
:104F000070E080E090E00E94A3038EE594E071CF12
:104F100045E050E063E172E08EEB92E00E948E2B60
:104F2000892BA1F483EC92E067969FAF8EAF6797D1
:104F3000CE018B5A9F4F0E94030D8C010E94B80C2A
:104F4000C8010E94D50C8BE594E053CF69E172E073
:104F50008EEB92E00E94852B892B09F03BC180915A
:104F60001404803919F08EEF93E043CFF0901B04C6
:104F70009E012F5D3F4F42E150E06F2D85E894E0A8
:104F80000E946C15882319F08FEE93E032CF1F92A8
:104F90001F926C96EFAD6C97EF936B96FFAD6B978E
:104FA000FF931F9284E08F9354E0852E912CB12CB7
:104FB000A12C63E0C62EE12C06E020E840E06F2D36
:104FC00085E894E00E94AD130F900F900F900F9022
:104FD0000F900F90811109C02E968FAD2E9761967C
:104FE0000EAD1FAD6197843010F409E014E08AEE35
:104FF00093E00E9406068AA50E94EE0D89A50E94F4
:10500000EE0D84EE93E00E9406068CA50E94EE0D44
:105010008BA50E94EE0D8EED93E00E9406068EA5F4
:105020000E94EE0D8DA50E94EE0D88ED93E00E948A
:1050300006068CA10E94EE0D8BA10E94EE0D80ED64
:1050400093E00E9406068DA10E94EE0D8AEC93E08B
:105050000E94060668A570E090E080E04AE00E94A9
:10506000FC1C84EC93E00E940606A8016FA58F2D1E
:105070000E94781C8DEB93E00E940606A80168A9A7
:105080008F2D0E94781C84EB93E00E940606A801F5
:1050900069A98F2D0E94781C8E010C5B1F4F20E0A8
:1050A00049E050E06F2D85E894E00E94441581119D
:1050B0008CC08BEA93E00E94060628968EAD9FADC9
:1050C00028970E946B1D82EA93E00E9406062996AB
:1050D0006FAD299770E090E080E04AE00E94FC1CF0
:1050E0008AE993E00E9406062D968FAD2D9790E0F9
:1050F000880F991F0E946B1D8FE06E96AEADBFADFD
:105100006E971D928A95E9F78EE291E09CAB8BAB8E
:1051100028968EAC9FAC2897BFEF8B16910421F098
:1051200018F088248A94912CA096EFADA097EF9365
:105130006F96FFAD6F97FF9321E030E02C0F3D1F7E
:105140003F932F931F9280E28F93B12CA12C22E0EA
:10515000C22EE12C06E020E840E06F2D85E894E0C7
:105160000E94AD138E01065C1F4F0F900F900F90A1
:105170000F900F900F90C12CD12C760129968FADF6
:105180002997C81610F582E993E00E9406064AE0C6
:10519000C701B6010E94FC1C6DE385E793E00E9405
:1051A000F005D8016D917D918D0190E080E04AE09D
:1051B0000E94FC1CBFEFCB1ADB0AEB0AFB0AE4E0FF
:1051C000CE16D104E104F104C9F60E94EB1D8EE86D
:1051D00093E00FCE46E050E06EE172E08EEB92E09D
:1051E0000E948E2B892B09F06FC084EC92E06796A9
:1051F0009FAF8EAF67970E942B2B5C0167968EAD99
:105200009FAD6797DC012C912F7D31F00196679659
:105210009FAF8EAF6797F2CF0E942B2B2091140483
:10522000203919F085E893E0E4CDE8E2F1E0FAA353
:10523000E9A31CA21BA24C018130924018F0812CE2
:1052400092E0992EBB246A962FAD6A972F936996A8
:105250003FAD69973F9381E090E08C0F9D1F9F9336
:105260008F931F9280E28F9382E2C82EE12C06E09A
:1052700021E840E060911B0485E894E00E94AD13B2
:10528000182F8BA19CA18F7199270F900F900F90D1
:105290000F900F900F90892B29F06AE085E793E03B
:1052A0000E94F005112369F080E893E00E94060651
:1052B000612F70E090E080E04AE00E94FC1C0E94B8
:1052C000EB1D8CE793E095CD45E050E065E272E0A0
:1052D0008EEB92E00E948E2B892BB1F5E3ECF2E08D
:1052E0006796FFAFEEAF679701900020E9F7E45CA7
:1052F000F24083E594E0709708F47BCD0EEB12E06A
:10530000DE0111967D016D01F80185810E94EF0C8F
:10531000B82ED80116968C910E94EF0CB0E1BB9E7E
:1053200090011124822BF70181937F010E5F1F4FA3
:105330002EEC32E02017310739F761E0C6010E94F8
:10534000570E80E594E055CD6BE272E08EEB92E073
:105350000E94852B892B09F07FC08DE494E00E9488
:105360000606609190027091910280919202909154
:1053700093024AE00E94FC1C82E494E00E9406062C
:10538000009190021091910220919202309193022B
:10539000011511052105310571F060918C027091A4
:1053A0008D0280918E0290918F02A90198010E9436
:1053B000512B89019A014AE0C901B8010E94FC1CE5
:1053C00089E394E00E940606609188027091890248
:1053D00080918A0290918B024AE00E94FC1C8DE22F
:1053E00094E00E9406068091390490E00E946B1DB3
:1053F00082E294E00E9406066091140470E090E05E
:1054000080E040E10E94FC1C88E194E00E940606D6
:105410000E94320E682F70E090E080E04AE00E9427
:10542000FC1C0E94EB1D10928802109289021092BF
:105430008A0210928B0210928C0210928D021092AE
:105440008E0210928F02109290021092910210928E
:1054500092021092930278CC46E050E061E372E051
:105460008EEB92E00E948E2B892B69F484EC92E003
:105470000E942B2B21E0892B09F420E02093870246
:1054800085E194E0B6CC44E050E068E372E08EEB56
:1054900092E00E948E2B892B69F482EC92E00E94AC
:1054A0002B2B21E0892B09F420E02093860282E156
:1054B00094E09FCC45E050E06DE372E08EEB92E02B
:1054C0000E948E2B892BB9F483EC92E00E942B2B47
:1054D000809314010E94D5036056704F8F4F9F4FE9
:1054E00060936003709361038093620390936303FE
:1054F0008FE094E07ECC46E050E063E472E08EEB17
:1055000092E00E948E2B892B91F484EC92E00E9411
:105510002B2B8F5F8093BD021092B9021092BA02BA
:105520001092BB021092BC028CE094E062CC42E08C
:1055300050E06AE472E08EEB92E00E948E2B892BA1
:1055400071F480EC92E00E942B2B61E0892B09F42E
:1055500060E08DE00E94500389E094E04ACC87E04F
:1055600094E047CC6093B4027093B5028093B60286
:105570009093B702E9CB8D3009F4B2CBE0915E0392
:10558000EF3908F0ADCB91E09E0F90935E03F0E011
:10559000E254FD4F8083A4CB0091BD02002361F152
:1055A0000E94D503C090B902D090BA02E090BB022D
:1055B000F090BC026C157D058E059F05E8F01091FA
:1055C000B80281E018271093B802612F8DE00E9485
:1055D0005003111103C001500093BD020E94D50376
:1055E0006A567F4F8F4F9F4F6093B9027093BA02F4
:1055F0008093BB029093BC0280E090E0892B09F479
:105600001BCA0E94000011CA11E080911404803965
:1056100009F010E00E94D503C0906503D0906603A6
:10562000E0906703F09068036C197D098E099F096B
:1056300069397A438105910508F4E7CA0E94C210CE
:105640000E94D5036093650370936603809367039C
:1056500090936803DACAFC0188279927E89421917E
:105660002032E9F3293010F02E30C8F32B3241F00C
:105670002D3239F4689404C00E94492B820F911D89
:10568000219120532A30C0F31EF4909581959F4FAD
:1056900008957AE0979F902D879F802D910D11247A
:1056A0000895A1E21A2EAA1BBB1BFD010DC0AA1F63
:1056B000BB1FEE1FFF1FA217B307E407F50720F07B
:1056C000A21BB30BE40BF50B661F771F881F991FF6
:1056D0001A9469F760957095809590959B01AC013F
:1056E000BD01CF010895EE0FFF1F0590F491E02D4D
:1056F000099481E090E0F8940C949C2BDC0101C0AB
:105700006D9341505040E0F70895FB01DC018D910D
:10571000019080190110D9F3990B0895FB01DC0168
:105720004150504030F08D910190801919F40020C3
:0C573000B9F7881B990B0895F894FFCF7F
:10573C0000C18081000000FFFFFFFF00E1000000BE
:10574C00000000FFFF0921010100012245000000BB
:10575C000000F20600000000090E00000000360DEB
:10576C0000000000F005DA052C0621067306310650
:10577C004F0600000000660AFE0ABE0A540CDD212A
:10578C00F6FF00002B0C20055C0C5B0CE311E721F1
:10579C00490B00000000A2091B0AE009C509000022
:1057AC0000005F0C00000000781AD80F3308D212EA
:1057BC00CC0FD70FD50FD30FD10F4C086A08CF0FD2
:1057CC008B08C90F1921FF1DFEFF0000D32100001B
:1057DC000000781AD80F3308D212CC0FD70FD50F80
:1057EC00D30FD10F4C086A08CF0F761DC90F1921A2
:1057FC00740DFEFF0000D321000000001F19D80F0C
:10580C008D061E18B406C418D50FAF06D10F0000B4
:10581C0000006F091A09F808303132333435363745
:10582C003839414243444546000D0A00484200576E
:10583C00484F0050494E47004D41534B20004B45BB
:10584C00592000434F4E532000494E464F005244BE
:10585C00455343200053494D512000535441545358
:10586C00005741544348200044424720004C4544D3
:0E587C005320004C4159455220004C200000A2
:00000001FF
